:020000040800F2
:1000000000000220A95600084523000847230008E5
:10001000492300084B2300084D230008000000007E
:1000200000000000000000000000000081510008F6
:100030004F2300080000000021520008174D00085F
:10004000F9560008F9560008F9560008F956000854
:10005000F9560008F9560008F9560008F956000844
:10006000F9560008F9560008F9560008F956000834
:10007000F9560008F9560008F9560008F956000824
:10008000F9560008F9560008F9560008F956000814
:10009000F9560008F9560008F9560008F956000804
:1000A000F956000851230008F9560008F9560008CF
:1000B000F9560008F9560008F9560008F9560008E4
:1000C000F9560008F9560008F9560008F9560008D4
:1000D000F9560008F9560008F9560008F9560008C4
:1000E000F9560008F956000800000000F95600080B
:1000F000F9560008F9560008F9560008F9560008A4
:10010000F9560008F9560008F9560008F956000893
:10011000F9560008F9560008F9560008F956000883
:10012000F9560008F9560008F9560008F956000873
:10013000F9560008F9560008F9560008F956000863
:1001400000000000000000000000000000000000AF
:10015000F9560008F9560008F9560008F956000843
:10016000F9560008F9560008F9560008F956000833
:10017000F9560008F9560008F9560008F956000823
:10018000F9560008F9560008F9560008F956000813
:10019000F9560008F9560008F9560008F956000803
:1001A000F9560008F9560008F9560008000000004A
:1001B000F9560008F9560008F9560008F9560008E3
:1001C000F9560008F9560008000000000000000081
:1001D0000000000000000000F956000800000000C8
:1001E000000000000000000000000000000000000F
:1001F0000000000000000000F9560008F956000851
:10020000F9560008F956000800000000F9560008E9
:10021000F9560008F9560008F9560008F956000882
:10022000F956000800000000F95600080000000020
:10023000F9560008F956000800000000F9560008B9
:10024000F9560008F9560008F9560008F956000852
:10025000F9560008F9560008F9560008F956000842
:10026000F9560008F9560008F9560008F956000832
:10027000F9560008F9560008F95600080000000079
:10028000F9560008F9560008F9560008F956000812
:1002900000000000F9560008F9560008F956000859
:1002A000F9560008F9560008F9560008F9560008F2
:1002B000F9560008F9560008F9560008F9560008E2
:0C02C000F9560008F9560008F95600082D
:1002E0000348044B834202D0034B03B118477047C5
:1002F0005C0800205C08002000000000054806495A
:100300000B1AD90F01EBA301491002D0034B03B123
:10031000184770475C0800205C08002000000000BF
:1003200010B5064C237843B9FFF7DAFF044B13B13D
:100330000448AFF300800123237010BD5C08002047
:10034000000000006467000808B5044B1BB10449B5
:100350000448AFF30080BDE80840CFE7000000008C
:10036000600800206467000808B5062000F09CFCC7
:10037000012001F0E5FF00BF002301461A461846A0
:1003800000F0CCBE38B5084B084D5B1B9C1007D065
:10039000043B1D44013C55F804399847002CF9D121
:1003A000BDE8384006F0E4B96C6C0008686C0008E1
:1003B00070B50D4E0D4D761BB61006D0002455F8C5
:1003C000043B01349847A642F9D1094E094D761BEA
:1003D00006F0C8F9B61006D0002455F8043B0134E5
:1003E0009847A642F9D170BD5C6C00085C6C0008AF
:1003F000686C00085C6C0008024B0146186800F04D
:100400000BB800BF00000020024B0146186800F046
:1004100009BF00BF000000202DE9F04F01F10B06DD
:10042000162E83B0044624D8102900F2BA8000F0BA
:1004300089FB102618220220B74F3A44A2F1080186
:1004400053688B4200F0BA805A68D96822F00302E0
:100450001A449D68E9608D60516841F001012046B1
:10046000516003F1080500F06FFB284603B0BDE8BA
:10047000F08F36F0070600F19480B14200F29180CF
:1004800000F060FBB6F5FC7FC0F09681730A00F0C7
:100490008F80042B00F26B81B30903F1390003F163
:1004A000380CC3009C4F3B44A3F108055B689D4298
:1004B00006D10CE0002980F22B81DB689D4206D03A
:1004C0005A6822F00302911B0F29F3DD60463D6953
:1004D000DFF848C265457CD06A6822F00302931BAE
:1004E0000F2B00F37781002BC7E904CC80F26881E1
:1004F000B2F5007F80F01681D308796801334FEAA6
:10050000521E012202FA0EF20A4357F833E0C5F8F0
:1005100008E007EBC3010839E9607A6047F8335017
:10052000CEF80C50831001219940914257D81142C6
:1005300006D120F003004900114200F10400FAD076
:1005400007EBC0094D468646D5F80C80454508D1D5
:1005500019E1002B80F22081D8F80C80454500F08D
:100560001281D8F8042022F00302931B0F2BF0DD38
:100570002046D8E9025408EB060146F00106C8F807
:100580000460EC60A56043F00104C7E90411C1E90F
:1005900002CC4C6048F8023000F0D6FA08F10805A9
:1005A00002E00C2323600025284603B0BDE8F08F4D
:1005B0004FF4007340204FF03F0C73E7D3689A422A
:1005C00008BF02307FF440AF3D69DFF850C1654598
:1005D00082D17A688310012199409142A7D9BD68E0
:1005E0006B6823F00308464503D8A8EB06030F2BDE
:1005F0007EDCDFF82C91D7F80824D9F800300132DE
:10060000334405EB080A00F02F8103F580530F33C4
:1006100023F47F6B2BF00F0B5946204600F096FA1F
:10062000411C024600F0EF80824500F2EA80D9F8D2
:1006300004105944C9F804100B4600F04B81D7F858
:10064000081401311BBFA2EB0A0A5344C7F808245F
:10065000C9F8043012F0070300F01281C3F1080159
:100660000A44C3F5805193440831A1EB0B01C1F357
:100670000B0A514620460192009300F067FA421C93
:10068000DDE9003200F04B81831A03EB0A0BD9F845
:100690000400BA604BF001030AEB0001BD42536055
:1006A000C9F8041000F02281B8F10F0F40F2208148
:1006B0006B68A8F10C0020F0070003F0010303436E
:1006C0006B604FF0050C2B180F28C3E901CC00F22A
:1006D0002D8153681546D9F82C208A42D9F830204C
:1006E00038BFC9F82C108A4238BFC9F830108CE0E6
:1006F000AA1943F0010346F001066E602046BA6075
:10070000536000F021FA0835284603B0BDE8F08FA9
:10071000D9681A449DE600BF300400203804002048
:1007200078080020B2F5206F4FEA522363D3142BD0
:1007300000F2B88003F15C01C9005B3307EB010EE6
:100740007958AEF1080E8E4500F091804B6823F089
:100750000303934202D989688E45F7D1D1F80CE0A2
:100760007A68C5E9021ECEF80850CD60DAE6142B8F
:1007700059D9542B00F29E80330B03F16F0003F123
:100780006E0CC3008EE60EF1010E1EF0030F05F194
:1007900008057FF4D9AE51E0424445465368D8F885
:1007A0000C1043F00103536055F8083F2046D96010
:1007B0008B6000F0C9F9F7E6F00806F108023BE6A5
:1007C0002A442046536843F001035360083500F083
:1007D000BBF9E9E6A919204646F0010643F00104F9
:1007E0006E60C7E90411C1E902CC4C60AB5000F067
:1007F000ABF90835D8E6930903F13901C90038335C
:100800009CE7BD4260D0BD686B6823F0030B5E457A
:10081000ABEB060302D80F2B3FF76AAF204600F080
:1008200093F90025C0E603F15C0003F15B0CC30003
:1008300038E659F808394B4540F0968010F0030F20
:1008400000F1FF30F5D17B6823EA01037B604900AA
:1008500099423FF6C4AE19B9C1E649000EF1040E43
:100860001942FAD070466BE603F1100BD4E69A10E9
:100870004FF001087B6808FA02F21A437A6070E7C9
:1008800002EB0B014942C1F30B0A5146204601938A
:10089000009200F05BF9431CDDE900237FF4F4AE25
:1008A0009A46F4E6542B26D8130B03F16F01C900C6
:1008B0006E3343E7B3F5AA7F26D8F30B03F1780034
:1008C00003F1770CC300EDE5D9F804305B44C9F8B7
:1008D0000430B4E6CAF30B0000287FF4B0AEBD6864
:1008E00008EB0B0343F001036B60F4E61546F2E6F8
:1008F0000123536092E7B3F5AA7F21D8D30B03F10C
:100900007801C900773319E740F25452934221D855
:10091000B30C03F17D0003F17C0CC300C2E5083B7E
:100920009B44ABEB020B4FF0000AB0E605F1080167
:10093000204600F077FCBD68D9F804106B68CAE661
:1009400040F254518B420BD8930C03F17D01C90046
:100950007C33F3E64FF47E737F204FF07E0CA1E5ED
:100960004FF47E717E23E9E67B6870E7844641EAB6
:10097000000313F003036DD1403A41D351F8043B17
:1009800040F8043B51F8043B40F8043B51F8043B69
:1009900040F8043B51F8043B40F8043B51F8043B59
:1009A00040F8043B51F8043B40F8043B51F8043B49
:1009B00040F8043B51F8043B40F8043B51F8043B39
:1009C00040F8043B51F8043B40F8043B51F8043B29
:1009D00040F8043B51F8043B40F8043B51F8043B19
:1009E00040F8043B51F8043B40F8043B51F8043B09
:1009F00040F8043B51F8043B40F8043B403ABDD278
:100A0000303211D351F8043B40F8043B51F8043B19
:100A100040F8043B51F8043B40F8043B51F8043BD8
:100A200040F8043B103AEDD20C3205D351F8043BA8
:100A300040F8043B043AF9D2043208D0D2071CBF74
:100A400011F8013B00F8013B01D30B88038060469D
:100A5000704700BF082A13D38B078DD010F0030313
:100A60008AD0C3F10403D21ADB071CBF11F8013B83
:100A700000F8013B80D331F8023B20F8023B7BE7D2
:100A8000043AD9D3013A11F8013B00F8013BF9D2FD
:100A90000B7803704B7843708B7883706046704797
:100AA000830730B548D0541E002A3FD0CAB203464F
:100AB00001E0013C3AD303F8012B9D07F9D1032C47
:100AC0002DD9CDB245EA05250F2C45EA054536D985
:100AD000A4F1100222F00F0C03F1200EE6444FEABD
:100AE000121C03F1100242E9045542E9025510328A
:100AF0007245F8D10CF1010214F00C0F03EB021255
:100B000004F00F0C13D0ACF1040323F003030433FF
:100B1000134442F8045B9342FBD10CF003042CB164
:100B2000CAB21C4403F8012B9C42FBD130BD644681
:100B30001346002CF4D1F9E703461446BFE71A46E2
:100B4000A446E0E7704700BF704700BF38B5074DC7
:100B50000022044608462A6001F0E4FB431C00D052
:100B600038BD2B68002BFBD0236038BDAC080020BB
:100B700038B5D0F8DC420CB1002038BD80210546E4
:100B8000FFF74AFC0246C5F8DC0230B1031F7C3295
:100B900043F8044F9342FBD1EEE74FF0FF3038BDEE
:100BA0001F29F8B5054609D8D0F8DC620C4617466F
:100BB0004EB156F8240046F82470F8BD16230360A1
:100BC0004FF0FF30F8BD8021FFF726FC0646C5F840
:100BD000DC0240B1031F00F17C05002143F8041F33
:100BE0009D42FBD1E5E74FF0FF30F8BD1F2938B536
:100BF000054621D8D0F8DC220C466AB152F82130E3
:100C000053B1012B16D0591C10D00025204642F8B4
:100C100024509847284638BD284600F003F922465C
:100C200001462846BDE8384000F0E6B816230360C8
:100C3000012038BD002038BD162303604FF0FF307F
:100C400038BD00BF1F292CD8D0F8DC2238B50C469F
:100C5000054682B152F8243002EB84024BB1591C94
:100C60001AD0012B16D0002520461560984728463B
:100C700038BD012038BD8021FFF7CEFB0246C5F804
:100C8000DC0258B1031F00217C3043F8041F984256
:100C9000FBD1DFE7032038BD022038BD4FF0FF3025
:100CA00038BD4FF0FF30704738B5154B1F281D6811
:100CB00020D8D5F8DC22044662B152F820304BB17E
:100CC000012B15D0591C0FD0002542F82050984711
:100CD000284638BD284600F0A5F822460146284699
:100CE000BDE8384000F088B816232B60012038BDDD
:100CF000002038BD16232B604FF0FF3038BD00BFF9
:100D000000000020134B1F2870B51E6809D80D463F
:100D1000D6F8DC12044649B151F8240041F82450B9
:100D200070BD162333604FF0FF3070BD8021304618
:100D3000FFF772FB0146C6F8DC0240B1031F00F169
:100D40007C0C002243F8042F6345FBD1E4E74FF00D
:100D5000FF3070BD0000002038B50C4B1D68D5F881
:100D6000DC420CB1002038BD80212846FFF754FB3F
:100D7000C5F8DC0238B1031F00F17C0243F8044FD0
:100D80009342FBD1EEE74FF0FF3038BD000000206A
:100D900038B5184B1F281D6828D8D5F8DC22044622
:100DA00082B152F8243002EB84024BB1591C1BD0A3
:100DB000012B17D00025204615609847284638BDDE
:100DC000012038BD80212846FFF726FB0246C5F8E2
:100DD000DC0258B1031F00217C3043F8041F83421A
:100DE000FBD1DEE7032038BD022038BD4FF0FF30D5
:100DF00038BD00BF0000002070B50C46084D03460A
:100E00000026204611461C462E6001F083FA431C42
:100E100000D070BD2B68002BFBD0236070BD00BFDD
:100E2000AC08002001F06EBA0000000000000000D5
:100E300000000000000000000000000000000000B2
:100E4000A2EB0300704700BF02780B78012A28BF8D
:100E50009A42F5D16DE9044540EA0104CDE9026703
:100E60006FF0000C4FEA447212B380EA010414F0F0
:100E7000070F6AD100F0070420F0070004F0030513
:100E800021F007014FEAC505F0E8042314F0040F30
:100E9000F1E804670CFA05F462EA040266EA040663
:100EA0000AD063EA0403624667EA0407664603E081
:100EB000F0E80423F1E8046782FA4CF582EA0604BC
:100EC000A4FA8CF46CBB83FA4CF583EA0705A5FA07
:100ED0008CF595B950E9022351E9026782FA4CF585
:100EE00082EA0604A4FA8CF483FA4CF583EA070537
:100EF000A5FA8CF52543DBD09CB92DBAB5FA85F45B
:100F000024F0070427FA04F1DDE9026723FA04F369
:100F100003F0FF0001F0FF01FDE80445A0EB010034
:100F2000704724BAB4FA84F424F0070426FA04F1D2
:100F3000DDE9026722FA04F202F0FF0001F0FF018E
:100F4000FDE80445A0EB0100704714F0030F3CD10D
:100F500010F0030428D150F8082B51F8083B82FA0E
:100F60004CF582EA0305A5FA8CF55DB950F8042C1E
:100F700051F8043C82FA4CF582EA0305A5FA8CF597
:100F8000002DE8D02DBAB5FA85F424F0070423FA31
:100F900004F122FA04F202F0FF0001F0FF01FDE883
:100FA0000445A0EB010070474FEAC40420F00300A1
:100FB00050F8082B21F0030151F8083B0CFA04F417
:100FC00062EA040263EA0403C9E710F003041AD0DA
:100FD000A1EB040120F00300E40750F8042B06D035
:100FE0000FD28B785FFAA2F4E41A06D12BB1CB783A
:100FF0005FFAB2F4E41A00D11BB920465DF8104B39
:10100000704701F1040150F8042BCC0721F00301D3
:1010100051F8043B48D824D222F07F4482FA4CF5A0
:1010200094EA1325A5FA8CF50AD165B951F8043B69
:1010300084EA0204B4EB036F0ED150F8042BEBE703
:101040004FEA132355E035F07F454DD10878FDE890
:101050000445C0F1000070474FEA126203F0FF033D
:1010600047E002EA1C4482FA4CF594EA1345A5FADB
:101070008CF50AD165B951F8043B84EA0204B4EB5B
:10108000034F0CD150F8042BEBE74FEA134330E049
:1010900015EA1C4528D10B884FEA124229E04FEA95
:1010A000124203EA1C4324E002F0FF0482FA4CF5EA
:1010B00094EA1365A5FA8CF50AD165B951F8043B99
:1010C00084EA0204B4EB032F09D150F8042BEBE7B8
:1010D0004FEA13630DE015F0FF0F05D10B684FEADF
:1010E000122223F07F4304E04FF00000FDE80445A6
:1010F000704712BA1BBA82FA4CF482EA0304A4FACB
:101100008CF5B5FA85F402FA04F203FA04F34FEA17
:101110001260FDE80445A0EB1360704770B4184CF2
:101120002568D5F848411CB365681F2D25DC38B902
:10113000AB1C0135656044F82310002070BC70477B
:1011400004EB850C0228CCF88820D4F888614FF095
:10115000010202FA05F246EA0206C4F88861CCF8F8
:101160000831E5D1D4F88C311343C4F88C31DFE772
:1011700005F5A674C5F84841D6E74FF0FF30DDE726
:101180007C670008F8B5244F0C460646FFF7DAFCEA
:10119000BA685568C4F57E630F3325F003052B4408
:1011A00023F47F6323F00F03A3F58054B4F5805F2D
:1011B00007DB00213046FFF7C9FCBB682B4498428F
:1011C00004D03046FFF7C0FC0020F8BD6142304635
:1011D000FFF7BCFC01300DD0104ABB682D1B45F059
:1011E00001055D60136830461B1B1360FFF7ACFC04
:1011F0000120F8BD00213046FFF7A8FCBA68831A29
:101200000F2BDEDD43F001035360054B03491B68E0
:10121000C01A0860D5E700BF300400207C08002019
:1012200038080020002961D0F8B50C460646FFF7C3
:1012300089FC54F8042C7B4FA4F1080522F001012D
:1012400005EB010CB868DCF80430604523F00303BB
:1012500000F08B80D207CCF8043032D454F8082C3C
:10126000AD1A1144AA6807F1080082426AD00CEB5B
:101270000304D4F804E0EC68D4601EF0010FA2600F
:1012800000F0978041F001036B60CCF80010B1F5DD
:10129000007F35D27A68CB084809012101338140AB
:1012A0001143796007EBC30257F83310083AC5E9D8
:1012B000021247F83350CD603046BDE8F840FFF7E2
:1012C00043BC0CEB03025268D00710D4194407F159
:1012D0000800DCF80830834273D0DCF80C20DA60B8
:1012E000936041F001036B606950D0E7704741F0B3
:1012F0000103B1F5007F44F8043CCCF80010C9D3D9
:10130000B1F5206F4FEA512348D28B0903F1390020
:1013100003F13802C300F818FB580838984259D036
:101320005A6822F003028A4202D99B689842F7D198
:10133000D868C5E902308560DD603046BDE8F84018
:10134000FFF702BC0CEB03025268D20763D40B44D4
:10135000DCE90212CA60916043F001026A60304623
:10136000EB50BDE8F840FFF7EFBB0B44D10707D4C3
:1013700054F8082CAD1A1344D5E90212CA609160E2
:1013800043F001026A60284ABD6012689A4293D80D
:10139000264B30461968FFF7F5FE8DE7142B0AD966
:1013A000542B1FD80B0B03F16F0003F16E02C30027
:1013B000B1E719448DE703F15C0003F15B02C30060
:1013C000A9E741F00103C7E90455C5E902006B60D4
:1013D000695071E779689210012404FA02F20A4315
:1013E0007A60A6E7B3F5AA7F06D8CB0B03F17800A5
:1013F00003F17702C3008EE740F25452934206D8BD
:101400008B0C03F17D0003F17C02C30083E74FF4F2
:101410007E737E227FE741F001036B60CCF8001001
:101420004AE700BF300400203C0800207808002074
:1014300003685A004CBF43F0004323F000431844B4
:10144000704700BF2DE9F84329B34F1E04461546E7
:101450003E464FF0000808EB060101EBD171491040
:1014600004EBC1094846FFF7E3FF0346C800083014
:101470008F42204409D0AB4209D8FFF7D9FF013889
:10148000A8420AD201F10108E5E7AB4205D9884537
:1014900001D04E1EDFE74FF000094846BDE8F88353
:1014A000012807D0022807D0044B00280CBF18469B
:1014B000002070470248704702487047791B0008B7
:1014C0007D1B0008811B000830B5234B83B0044608
:1014D0008D1E3BB301A92846AFF30080E8B1019906
:1014E0002A46FFF7AFFF0146B8B1FFF7A1FF4B68EF
:1014F000A064012B2CD0002B01F1040024DBFFF7AA
:1015000097FF0023C4E913030368002B11DBFFF7E7
:101510008FFF2061002003B030BD0023092023612C
:1015200003B030BD0D4B0E49C91AC91018460191C0
:10153000D6E7C3F30360FFF7B3FF0028206114BFB1
:101540000020092003B030BD0123C4E91303DBE709
:10155000002323610520DEE7000000009C6A0008EC
:101560005C6C00080368DA0710B5044606D49B07D4
:1015700000F1480009D500F05BFC2368590709D544
:101580001A070ED5DB0613D510BD00F049FC236801
:101590005907F5D404F1D00000F052FC23681A0773
:1015A000F0D404F5A87000F053FC2368DB06EBD4FC
:1015B00004F5E870BDE8104000F08EBC09207047CB
:1015C0000346006800B11844704700BF704700BF71
:1015D00070B504460E46316C2046FFF775FF054690
:1015E00088B9326C626123693246214601209847EE
:1015F0000828F0D0072806D12846316CFFF7E6FF0F
:10160000301D00F001FCFEF7AFFE00BF2DE9F047F2
:101610000D1DD0F80C80D0F81890074614460FCD59
:10162000ADF5727D0DF10C0CACE80F000FCDACE800
:101630000F000FCDACE80F0095E80F0002AE4FF0A1
:10164000000E8CE80F00C6F800E020E0336C7B61F0
:101650004FF4F07231467AA8FFF788F93B697AAA0D
:10166000394650469847889B73642146CDE9006906
:1016700005463B463A460120C0470446E0B94FF4D0
:10168000F0727AA93046FFF771F9082D1AD1316C42
:101690003846FFF719FF09345FFA84FA0546002837
:1016A000D4D0B36B73643A46CDE900693B464AF047
:1016B00010010120C04700B1092528460DF5727DB3
:1016C000BDE8F087072DF7D12046316CFFF77EFF8C
:1016D00003A800F099FB00BF406C7047F0B5CB6BDE
:1016E0000B6401F1040C0E460546BCE80F00F9B08E
:1016F00001AC0FC4BCE80F000FC4BCE80F000FC45E
:101700009CE80F004FF0FF3784E80F00009706E0D9
:101710002B696A46294698470828044608D110993B
:101720002846FFF7D1FE0028F2D0092079B0F0BD9D
:101730006846FFF717FF062CF7D131462846FFF71A
:1017400047FF00BFC160D96B82611964002219464E
:101750005CE700BF70B5C66843690B64AEB9036946
:101760000A4604460D46014602209847072805D040
:1017700008280FD129462046FFF72AFF3046296C5A
:10178000FFF724FF281D00F03FFB0122FFF73EFF7B
:10179000FEF7EAFDFEF7E8FDC2681AB1CA6B0A64FB
:1017A000002233E79AE700BF704700BF8368014615
:1017B0000BB1012018477047012912D009D873B91D
:1017C0000F2A0CD800EB820218465368009A136067
:1017D00070470339012994BF01200220704702207D
:1017E00070470846704700BF00B585B00A46002321
:1017F00003A900911946FFF7DFFF039805B05DF8D4
:1018000004FB00BF012912D009D873B90F2A0CD8E4
:1018100000EB8200009A1268426018467047033954
:10182000012994BF0120022070470220704708461A
:10183000704700BF10B584B0002303AC039200943E
:101840000A461946FFF7DEFF04B010BD70B5D36B32
:10185000136402F1040C05460C46BCE80F00ADF51C
:101860000E7D0DF15C0EAEE80F00BCE80F00AEE897
:101870000F00BCE80F00AEE80F009CE80F004FF02F
:10188000FF368EE80F00169610E0FFF7D3FF2146D3
:1018900016A8A847034616AA6946082083B9049BE0
:1018A0009847052806460CD0092809D0269968468D
:1018B000FFF70AFE03466A460C2116A8002BE4D067
:1018C000092616A8FFF74EFE30460DF50E7D70BDB9
:1018D0002DE9F04FCC6C89B01E4654F8043B0694B9
:1018E0000D46174600F00308002E79D01A0C1B0491
:1018F00005938DF81D200223D2B204EB82048DF8EB
:101900001C302B6DB8F1020F08BFAC6B13F0010354
:101910000CD005A9384600F079FB18B9082009B0A9
:10192000BDE8F08F092009B0BDE8F08FD4F800A021
:10193000BAF1000FEDD0019300F008030293022EDC
:101940004AD0B4F800A0B4F802900434AB6C29F08B
:10195000010B0F2138469B44FFF746FF834539D8DA
:101960002AF001039B44834594BF002001204FEAE5
:10197000490303F002030AF0010A43EA0A03012BB8
:1019800049D0022B32D0002BCCD1B8F1000F02D0BD
:10199000002840F0CD800434D4F800A0BAF1000F44
:1019A000CDD105A9384600F031FB0028BAD1019B02
:1019B000002BB3D00F213846FFF716FF0E21024649
:1019C0003846FFF737FF38466A4A0F21FFF732FFE4
:1019D0000720A8E70020CAE7D4F804900834B5E748
:1019E0001B0205930323ADF81C308AE7236823F01C
:1019F000004BB8F1000F45D128B1029A002A5CD003
:101A0000BBF1000F74D0002B00DA04340BF1010B92
:101A100004EB8B04C0E7B8F1000F19D1B0B16368D3
:101A20002268991C4FEAD2723FF47CAF05F158014D
:101A30000133049100F09080201DFFF7C1FD04AB3D
:101A40000146284603F062FE00285BD10834A3E774
:101A50000D213846D5F82090FFF7C6FE8145F5D117
:101A6000AB6A9C42F2D12046FFF7E2FC0F2102460E
:101A70003846FFF7DFFE38462A460021FFF7DAFE38
:101A8000072050E70D213846D5F82090FFF7ACFE2F
:101A9000814501D02368B6E7AB6A9C42FAD10423A2
:101AA0000022C5E90B23E318C5F828B06B6323684F
:101AB000002B59DB01230193A8E705F15803CDF86A
:101AC0000C8004F1040AB04691461E460EE05046D2
:101AD0000496FFF775FD0022014604AB284609F184
:101AE00001090AF1040A03F011FEE0B9D945EED16B
:101AF0000D213846FFF778FE049BAC62C5E9080368
:101B0000062010E781460D213846FFF76DFEB9F13A
:101B1000020F286225D12B46049A43F82C2F6B62C2
:101B2000AC620620FFE646462368DDF80C806AE7D3
:101B30002046FFF77DFC04340246AC632846144679
:101B400003F03EFE00283FF4EDAE384622460F215A
:101B5000FFF770FE0720E6E60D213846FFF744FE4A
:101B60002862049B6B62DBE70BF1010004EB800051
:101B70007AE700BFFD6300080023A9E60123A7E67A
:101B80000223A5E62DE9F0430646C3B015461C46E0
:101B9000042900F2BF80DFE801F09E57BD2D03004D
:101BA000002C40F0B780102A00F2B4800368D806F9
:101BB00000F1F98020AF384600F098F9B46B39464F
:101BC00000234FF0010C0CFA03F22A42204603F1E5
:101BD000010303D050F8042B0A600446042B01F1E2
:101BE0000401F0D13846B46300F076F9002043B028
:101BF000BDE8F083032C40F08D8094B204EB1243D7
:101C0000102B4FEA124500F2858003681F0700F190
:101C1000D28020AF384600F03DF9B26B07EBC5012A
:101C200054B10B46D01A01EBC401E4001D5843F82F
:101C3000045B8B42FAD122443846B26300F008F9C3
:101C4000002043B0BDE8F083012C4FEA124895B262
:101C50005CD0052C5ED108EB0509B9F1200F59D8ED
:101C6000B8F10F0F79D9A946002D40F08A80B36BE7
:101C70006DB320AF4FF0000907EBC807043F03EB3B
:101C8000C50553F8041B47F8041FAB42F9D1B9F15D
:101C9000000F0FD06F464146102938BF102107EBC7
:101CA000C101843903EBC90553F8040B41F8040F53
:101CB000AB42F9D1012C00F08680B8F10F0FB5636B
:101CC00047D9B9F1000F02D0684600F0B9F80020FA
:101CD00043B0BDE8F083ECB9806B23461FFA82FC69
:101CE0000124371D04FA03F212EA0C0F014604D056
:101CF00051F8042B47F8232008460133102BF1D16B
:101D000015F40055E3D1B063284604E008EB050361
:101D1000102B03D9022043B0BDE8F083B8F10F0FB8
:101D2000F8D83368DA0706D5304623F0030340F8C5
:101D3000483B00F079F820AF384600F075F8B36BF7
:101D4000002D97D11D460435B563384600F068F87C
:101D5000BDE720A800F06CF8B3E7B9F1100F40D947
:101D6000A9F110093368D90708D523F001033046DB
:101D700043F0020340F8483B00F05EF8B9F1000F71
:101D800032D033685A0720D4B8F10F0F25D96F46E7
:101D90003846C8F1100500F057F8002DB36B7FF7F7
:101DA0007AAF20AF68E723F01003336006F5E870E0
:101DB00000F09CF8FEE623F00803036000F5A8702D
:101DC00000F068F825E720AFBDE7304623F00403B4
:101DD00040F8D03B00F038F8D6E720A800F02CF807
:101DE000D5E74FF00009BDE7B8F10F0F3FF63FAF61
:101DF00020AF384600F020F8B36B002D7FF43AAFE7
:101E0000384600F015F862E700F1340191E8380037
:101E10009C46A6464CF8045D90E8FF0FE54600BDE1
:101E200090EC210B704700BF80EC210B704700BF86
:101E300090EC200B704700BF80EC200B704700BF78
:101E4000D0EC200B704700BFC0EC200B704700BFE8
:101E5000F0EC0201F0EC0211F0EC0221F0EC0231A6
:101E6000F0EC0241F0EC0251F0EC0261F0EC027196
:101E7000F0EC0281F0EC0291F0EC02A1F0EC02B186
:101E8000F0EC02C1F0EC02D1F0EC02E1F0EC02F176
:101E9000704700BFE0EC0201E0EC0211E0EC02212F
:101EA000E0EC0231E0EC0241E0EC0251E0EC0261D6
:101EB000E0EC0271E0EC0281E0EC0291E0EC02A1C6
:101EC000E0EC02B1E0EC02C1E0EC02D1E0EC02E1B6
:101ED000E0EC02F1704700BFB0FC0181B0FC019161
:101EE000B0FC01A1B0FC01B1704700BFA0FC0181B2
:101EF000A0FC0191A0FC01A1A0FC01B1704700BFB2
:101F0000EC4600B52DE900502DE9FF1F4FF000030E
:101F10002DE90C0001A9FFF7E1FBDDF840E012B06C
:101F2000704700BFEC4600B52DE900502DE9FF1FBA
:101F30004FF000032DE90C0001A9FFF70BFCDDF8C1
:101F400040E012B0704700BFEC4600B52DE90050EC
:101F50002DE9FF1F4FF000032DE90C0001A9FFF749
:101F60001BFCDDF840E012B0704700BFEC4600B546
:101F70002DE900502DE9FF1F4FF000032DE90C0063
:101F800001ABFFF7DFFBDDF840E012B0704700BFA8
:101F9000EC4600B52DE900502DE9FF1F4FF000037E
:101FA0002DE90C0001AAFFF751FCDDF840E012B06A
:101FB000704700BF027A03467AB9427AA2B14168FB
:101FC000013A10B44272086803220C1D1A72020210
:101FD0005C60000E10BC1A6070470068013A1A720B
:101FE00002021A60000E7047B020704700B585B03D
:101FF000002303AA009219460C22FFF7DDFB039889
:1020000005B05DF804FB00BFF0E700BF2DE9F04329
:10201000054685B00E464FF000083046FFF7CAFF70
:10202000B028044600F0BA80070620D500F0F0037F
:10203000802B4DD0902B36D0A02B60D0B02B74D0FD
:10204000C02B00F08B8000F0F803D02B0BD100F0F8
:1020500007020132052342F4002201212846FFF73E
:1020600091FD0028D9D0092005B0BDE8F083830098
:10207000DBB21F1D0DF10C0900231946CDF80090AD
:102080000D222846FFF798FB039BCDF800906006D1
:102090004CBFDF1BFF1800230D221946284603976B
:1020A000FFF7B0FBB9E700F00D030D2BDBD003AF5A
:1020B000002300F00F02194600972846FFF77CFB2B
:1020C000002300970D2219462846FFF79BFBA4E743
:1020D0003046FFF76FFF24022043B0F5004FC2D017
:1020E00004010023A2B219462846FFF74BFD002841
:1020F000B9D114F4004F18BF4FF001088DE7C24367
:1021000002F007034FF47F621A41010702F47F6275
:102110004FF0000348BF42F4804219462846FFF7BB
:1021200031FD00283FF479AF9DE7B1283BD0B228BC
:1021300000F09380B32841D000F0FC03B42B92D080
:1021400000F007020132012342F40022194628461A
:10215000FFF718FD00283FF460AF84E7C6284AD097
:10216000C72854D000F0F803C02B63D0C82868D02B
:10217000C9287FF478AF3046FFF71CFF020300F058
:102180000F0002F47022013002430121052328468A
:10219000FFF7F8FC00283FF440AF64E7B8F1000F08
:1021A00018D0002060E73046FFF704FF0246002801
:1021B0003FF459AF10F0F003C8D054E73046FFF7B2
:1021C000F9FE020300F00F03013302F470221A43F8
:1021D0000123BBE703AC43460E2241460094284648
:1021E000FFF7EAFA009443460F2241462846FFF7DC
:1021F00009FB404638E73046FFF7DCFE020300F0FB
:102200000F03013302F470221A4303239EE7304682
:10221000FFF7D0FE024600283FF425AF10F0F00390
:102220007FF421AF04212846FFF7ACFC00283FF4DF
:10223000F4AE18E700F00F020132032342F420222B
:1022400084E73046FFF7B6FE00F0F00200F00F031F
:102250001032013343EA023297E700230DF10C09F3
:102260000D221946CDF800902846FFF7A5FA304612
:10227000FFF7A0FE02064FF002040CD5039B00F00E
:102280007F00A040184403903046FFF793FE0306FA
:1022900004F10704F2D4039BCDF8009000F07F0214
:1022A000A24003F501731A440023039219460D223C
:1022B0002846FFF7A7FAB0E610B5C26C536884B0A1
:1022C0004FF0030C08321C0208461B0E01A90194B2
:1022D00002928DF80CC08DF80D30FFF797FE04B018
:1022E00010BD00BF08B5FFF78FFE806C08BD00BFB2
:1022F00008B5FFF789FEC06CC379023300EB830099
:1023000008BD00BF024B58221A604FF0FF307047E3
:10231000AC080020024B58221A604FF0FF30704783
:10232000AC080020044A05491368002B08BF0B467F
:102330001844106018467047B0080020005500206F
:10234000FEE700BFFEE7FEE7FEE7FEE7FEE77047B9
:1023500008B5024801F02EF808BD00BFB4080020FF
:1023600000B583B00A4BD3F8F42042F00202C3F860
:10237000F420D3F8F43003F002030193019B002210
:102380000F216FF0010000F05FF803B05DF804FB6F
:10239000004402580F2801D90120704710B58AB0B7
:1023A000044600220146192000F04EF8192000F0E2
:1023B00081F8174B1C60174BD3F8F02042F0010254
:1023C000C3F8F020D3F8F03003F001030093009B32
:1023D00001A902A800F0EAFD00F0D6FD43000E4876
:1023E000A0FB03239B0C013B0C480D4A026040F20A
:1023F000E732C260436000230361836001F038F973
:1024000010B101200AB010BD044800F07FFFF9E7C9
:10241000440800200044025883DE1B43B408002017
:10242000000001400649CB6823F4E0631B041B0C49
:10243000000200F4E0600343024A1A43CA60704796
:1024400000ED00E00000FA0500B5174BDB68C3F3B0
:102450000223C3F1070CBCF1040F28BF4FF0040C9A
:1024600003F1040EBEF1060F14D9033B4FF0FF3EFB
:102470000EFA0CFC21EA0C0199400EFA03F322EA51
:1024800003031943002807DB0901C9B2074B19549C
:102490005DF804FB0023E9E700F00F000901C9B271
:1024A000034B1954F4E700BF00ED00E000E400E046
:1024B00014ED00E0002807DB00F01F0240090123B3
:1024C0009340024A42F82030704700BF00E100E02C
:1024D000002800F0D78238B50446036813F0010FD6
:1024E00025D0A04A136903F03803926A102B15D047
:1024F000182B0FD06368B3F5803F3FD0002B53D12A
:10250000984B1A6822F480321A601A6822F48022EA
:102510001A6038E002F00302022AEBD1914B1B68EB
:1025200013F4003F03D06368002B00F0AD822368F2
:1025300013F0020F00F088808A4A1369926A13F040
:1025400038035AD0182B55D0E368002B00F0A9802F
:1025500084490A6822F0190213430B6000F0CEFE92
:102560000546804B1B6813F0040F40F0918000F08B
:10257000C5FE401B0228F4D903208CE2794A136877
:1025800043F48033136063682BB300F0B7FE054655
:10259000744B1B6813F4003FC9D100F0AFFE401B21
:1025A0006428F5D9032076E2B3F5A02F09D06D4B4E
:1025B0001A6822F480321A601A6822F480221A60A3
:1025C000E1E7684B1A6842F480221A601A6842F404
:1025D00080321A60D7E700F091FE0546614B1B6818
:1025E00013F4003FA3D000F089FE401B6428F5D906
:1025F000032050E212F0030FA6D15A4B1B6813F0D0
:10260000040F03D0E368002B00F04082554A1368A2
:1026100023F01903E1680B43136000F06FFE0546D9
:10262000504B1B6813F0040F06D100F067FE401BEF
:102630000228F5D903202EE24A4A536823F0FE43CC
:10264000216943EA01635360236813F0100F51D0EE
:10265000444A136903F03803926A082B39D0182BC7
:1026600033D0E369002B69D03E4A136843F08003FE
:10267000136000F043FE05463A4B1B6813F4807F5D
:1026800053D100F03BFE401B0228F5D9032002E2A3
:10269000344A536823F0FE43216943EA01635360DF
:1026A000D2E7304A136823F00103136000F026FEDE
:1026B00005462C4B1B6813F0040FC5D000F01EFE1E
:1026C000401B0228F5D90320E5E102F00302012AAC
:1026D000C7D1244B1B6813F4807F03D0E369802BA0
:1026E00040F0D6811F4AD36823F07C53216A43EA25
:1026F0000163D360236813F0080F49D06369002B8E
:1027000032D0184A536F43F00103536700F0F6FDCF
:102710000546144B5B6F13F0020F39D100F0EEFD4C
:10272000401B0228F5D90320B5E10E4AD36823F0F7
:102730007C53216A43EA0163D360DBE7094A1368EB
:1027400023F08003136000F0D9FD0546054B1B689C
:1027500013F4807FCED000F0D1FD401B0228F5D9C4
:10276000032098E1004402589D4A536F23F001036F
:10277000536700F0C3FD0546994B5B6F13F0020FE2
:1027800006D000F0BBFD401B0228F5D9032082E1F2
:10279000236813F0200F29D0A3699BB1904A1368D6
:1027A00043F48053136000F0A9FD05468C4B1B6871
:1027B00013F4005F1AD100F0A1FD401B0228F5D9E7
:1027C000032068E1864A136823F48053136000F005
:1027D00095FD0546824B1B6813F4005F06D000F0A0
:1027E0008DFD401B0228F5D9032054E1236813F026
:1027F000040F21D1636A002B00F04C81784A1269E2
:1028000002F03802182A00F0F380022B75D0744AC7
:10281000136823F08073136000F070FD0446704B62
:102820001B6813F0007F00F0D88000F067FD001BEC
:102830000228F4D903202EE16A4A136843F4807316
:10284000136000F05BFD0546664B1B6813F4807F48
:1028500006D100F053FD401B6428F5D903201AE18E
:10286000A368012B0AD00BBB5D4B1A6F22F001024B
:102870001A671A6F22F004021A6704E0584A136FAD
:1028800043F001031367A36833B300F037FD054637
:10289000534B1B6F13F0020FACD100F02FFD401B08
:1028A00041F288339842F3D90320F4E0052B09D094
:1028B0004B4B1A6F22F001021A671A6F22F00402C2
:1028C0001A67E0E7464B1A6F42F004021A671A6F64
:1028D00042F001021A67D6E700F010FD0546404BB2
:1028E0001B6F13F0020F85D000F008FD401B41F272
:1028F00088339842F3D90320CDE0394A136823F096
:102900008073136000F0FAFC0546354B1B6813F02A
:10291000007F06D000F0F2FC401B0228F5D903200E
:10292000B9E02F4B996A304A0A40A16AE06A41EA4D
:1029300000110A439A62226B013AC2F30802616BEA
:102940000139490289B20A43A16B0139090401F432
:10295000FE010A43E16B0139090601F0FE410A4319
:102960001A63DA6A22F00102DA62596B1F4A0A40DE
:10297000A16C42EAC1025A63DA6A22F00C02216CAD
:102980000A43DA62DA6A22F00202616C0A43DA620E
:10299000DA6A42F48032DA62DA6A42F40032DA62E7
:1029A000DA6A42F48022DA62DA6A42F00102DA621A
:1029B0001A6842F080721A6000F0A0FC0446084BCE
:1029C0001B6813F0007F06D100F098FC001B022862
:1029D000F5D903205FE000205DE000205BE000BF50
:1029E00000440258004802580CFCFFFF0700FFFF9C
:1029F00030498A6A086B012B4ED002F00303A16AAA
:102A00008B424BD1C2F30512E36A9A4248D1C0F31C
:102A10000802236B013B9A4244D1C0F34622636B08
:102A2000013B9A4240D1C0F30642A36B013B9A425C
:102A30003CD1C0F30660E36B013B984238D11D4B9B
:102A40005B6BC3F3CC03A26C9A4201D1002022E05D
:102A5000184AD36A23F00103D36200F04FFC054605
:102A600000F04CFCA842FBD0124A516B124B0B40B9
:102A7000A16C43EAC1035363D36A43F00103D362F9
:102A8000002008E001207047012004E0012002E05E
:102A9000012000E0002038BD0120FCE70120FAE71A
:102AA0000120F8E70120F6E70120F4E70120F2E732
:102AB0000120F0E7004402580700FFFF744B1B6938
:102AC00003F03803102B00F0DE80182B10D00BB170
:102AD000704870476E4B1B6813F0200F00F0D580D4
:102AE0006B4B1868C0F3C1006B4B23FA00F07047C2
:102AF00010B4674A916A01F00301946AC4F30510A7
:102B0000D36A03F0010C536BC3F3CC030CFB03F348
:102B100007EE903AF8EE677A14F47C7F00F0938029
:102B2000012965D0022900F09180E1B107EE100A79
:102B3000F8EE476A9FED596A86EE267A544B1B6B76
:102B4000C3F3080306EE903AF8EE666A9FED546A06
:102B500067EE867A76EEA77AF7EE006A77EEA67AC7
:102B600027EE277A60E0136813F0200F23D0114678
:102B70001268C2F3C102484BD34007EE103AF8EE98
:102B8000476A07EE100AB8EE476A86EE867A0B6B44
:102B9000C3F3080306EE903AF8EE666A9FED406ACA
:102BA00067EE867A76EEA77AF7EE006A77EEA67A77
:102BB00027EE277A38E007EE100AF8EE476A9FED15
:102BC000396A86EE267A324B1B6BC3F3080306EE96
:102BD000903AF8EE666A9FED326A67EE867A76EE94
:102BE000A77AF7EE006A77EEA67A27EE277A1BE03F
:102BF00007EE100AF8EE476A9FED286A86EE267AFD
:102C0000234B1B6BC3F3080306EE903AF8EE666A9B
:102C10009FED236A67EE867A76EEA77AF7EE006A72
:102C200077EEA67A27EE277A194B1B6BC3F3462360
:102C3000013307EE903AF8EE677AC7EE276AFCEEAA
:102C4000E67A17EE900A5DF8044B704707EE100A1B
:102C5000F8EE476A9FED146A86EE267A0C4B1B6BE2
:102C6000C3F3080306EE903AF8EE666A9FED0C6A2D
:102C700067EE867A76EEA77AF7EE006A77EEA67AA6
:102C800027EE277AD0E7094870470348704700BF0E
:102C90000044025800093D000090D0030024744A0B
:102CA000000000390024744C20BCBE4B40787D01EC
:102CB000002800F0328170B50D4604469B4B1B681E
:102CC00003F00F038B420BD2984A136823F00F03D3
:102CD0000B431360136803F00F038B4240F01F8116
:102CE000236813F0040F0CD02269914B9B6903F009
:102CF00070039A4205D98E498B6923F070031A43F9
:102D00008A61236813F0080F0CD06269884BDB6975
:102D100003F070039A4205D98549CB6923F070030B
:102D20001A43CA61236813F0100F0CD0A269804BBC
:102D3000DB6903F4E0639A4205D97D49CB6923F44A
:102D4000E0631A43CA61236813F0200F0CD0E269D4
:102D5000774B1B6A03F070039A4205D974490B6ADA
:102D600023F070031A430A62236813F0020F0CD099
:102D7000E2686F4B9B6903F00F039A4205D96C49D7
:102D80008B6923F00F031A438A61236813F0010F44
:102D900041D0674A936923F47063A1680B43936140
:102DA0006368022B0AD0032B27D0012B2CD0604A5A
:102DB000126812F0040F06D10120ADE0126812F47F
:102DC000003F00F0AE805A490A6922F0070213431F
:102DD0000B6100F093FA0646554B1B6903F038036C
:102DE0006268B3EBC20F16D000F088FA801B41F284
:102DF00088339842F0D903208EE04D4A126812F0D1
:102E0000007FE0D1012087E0494A126812F4807FF8
:102E1000D9D1012080E0236813F0020F0CD0E268C2
:102E2000434B9B6903F00F039A4205D240498B69DB
:102E300023F00F031A438A613C4B1B6803F00F0316
:102E4000AB420AD9394A136823F00F032B431360AE
:102E5000136803F00F03AB4265D1236813F0040F2E
:102E60000CD02269324B9B6903F070039A4205D261
:102E70002F498B6923F070031A438A61236813F08A
:102E8000080F0CD062692A4BDB6903F070039A4289
:102E900005D22749CB6923F070031A43CA6123681E
:102EA00013F0100F0CD0A269214BDB6903F4E0632F
:102EB0009A4205D21E49CB6923F4E0631A43CA61E2
:102EC000236813F0200F0CD0E269194B1B6A03F042
:102ED00070039A4205D216490B6A23F070031A4315
:102EE0000A62FFF7EBFD12498B69C3F30323114A12
:102EF000D35C03F01F03D8408B6903F00F03D35C4E
:102F000003F01F0320FA03F30B4A13600B4B186006
:102F10000B4B1868FFF73EFA70BD01207047012087
:102F2000FAE70120F8E70120F6E700BF0020005291
:102F300000440258806700084C0800204808002020
:102F40004408002008B5FFF7B9FD0B4A9369C3F3A5
:102F500003230A49CB5C03F01F0320FA03F39269B1
:102F600002F00F02885C00F01F0023FA00F0044A10
:102F70001060044A136008BD0044025880670008CE
:102F80004C0800204808002008B5FFF7DBFF054B80
:102F9000DB69C3F30223044AD35C03F01F03D84068
:102FA00008BD00BF00440258806700083F2303604B
:102FB000114B1A6902F0070242609A6902F47062CA
:102FC00082609A6902F00F02C2609A6902F0700290
:102FD0000261DA6902F070024261DA6902F4E062C9
:102FE00082611B6A03F07003C361044B1B6803F02A
:102FF0000F030B60704700BF0044025800200052CE
:10300000F0B583B000236BE085685E000324B44014
:1030100025EA0405CC68B4402C438460446824EA63
:103020000C0C4C68C4F300149C4044EA0C0444604B
:1030300068E0DD08083550F8256003F007044FEA22
:10304000840C0F2404FA0CF426EA040E0C6904FA2A
:103050000CF444EA0E0440F825406BE0092400E03B
:10306000002404FA0EF42C430CF1020C664D45F8D2
:103070002C404FF0B0442568D44325EA02064F683F
:1030800017F4801F01D042EA05064FF0B0452E60CC
:103090006D6804EA05064F6817F4001F01D042EA84
:1030A00005064FF0B0456E60D5F8845004EA050679
:1030B0004F6817F4003F01D042EA05064FF0B045D3
:1030C000C5F88460D5F880502C404E6816F4803FD7
:1030D00001D042EA05044FF0B042C2F8804001330B
:1030E0000A6832FA03F400F08C804FF0010C0CFAFD
:1030F00003FC1CEA0202F2D04C6804F00304013C19
:10310000012C81D94C6804F00304032C0CD0C46852
:103110005D004FF0030C0CFA05FC24EA0C0C8C68E3
:10312000AC4044EA0C04C4604C6804F00304022C74
:103130003FF47FAF04684FEA430E4FF0030C0CFAE4
:103140000EFC24EA0C0C4C6804F0030404FA0EF4A0
:1031500044EA0C0404604C6814F4403FBFD02B4C8C
:10316000D4F8F45045F00205C4F8F450D4F8F44013
:1031700004F002040194019C4FEA930C0CF1020547
:10318000214C54F8255003F003044FEA840E0F2419
:1031900004FA0EF425EA04051D4CA0423FF460AF8A
:1031A00004F58064A0421ED004F58064A0421CD0C7
:1031B00004F58064A0421AD004F58064A04218D0BF
:1031C00004F58064A04216D004F58064A04214D0B7
:1031D00004F58064A04212D004F50064A0423FF4DC
:1031E0003DAF0A243DE701243BE7022439E70324ED
:1031F00037E7042435E7052433E7062431E70724BD
:103200002FE703B0F0BD00BF00040058004402588F
:10321000000002580AB1816170470904816170475A
:10322000436901EA030221EA030141EA02418161A3
:1032300070470000134BDB6813F0040F07D1114BEC
:10324000DB6803F0070383421AD00120704710B5F2
:103250000C4AD36823F007031843D06000F04EF8FF
:103260000446084B5B6813F4005F07D100F046F892
:10327000001BB0F57A7FF4D9012000E0002010BDDA
:10328000002070470048025810B50320FFF7CAF825
:10329000FFF714FC0F498B69C3F303230E4AD35C79
:1032A00003F01F03D8408B6903F00F03D35C03F0D6
:1032B0001F0320FA03F3094A1360094B18600F201B
:1032C000FFF768F810B10124204610BD0446FFF74F
:1032D00047F8F9E700440258806700084C080020CE
:1032E00048080020034B1B78034A11680B44136005
:1032F000704700BF4008002000090020014B1868FB
:10330000704700BF000900207047000090F83D3072
:10331000DBB2012B42D1022380F83D300268D36832
:1033200043F00103D36003681E4AB3F1804F18BF16
:10333000934225D0A2F57C42934221D002F58062CF
:1033400093421DD002F58062934219D002F5784273
:10335000934215D0A2F56C42934211D002F59432FB
:1033600093420DD0A2F5C042934209D002F580628B
:10337000934205D01A6842F001021A60002070479B
:103380009968094A0A40062A18BFB2F5803F07D05B
:103390001A6842F001021A6000207047012070474D
:1033A000002070470000014007000100704770478F
:1033B0007047704710B5044603681A6912F0020F8F
:1033C00011D0DA6812F0020F0DD06FF002021A610C
:1033D0000123037703689B6913F0030F79D0FFF78C
:1033E000E6FF0023237723681A6912F0040F12D036
:1033F000DA6812F0040F0ED06FF004021A61022393
:10340000237723689B6913F4407F68D02046FFF739
:10341000CEFF0023237723681A6912F0080F12D019
:10342000DA6812F0080F0ED06FF008021A61042358
:1034300023772368DB6913F0030F57D02046FFF78B
:10344000B6FF0023237723681A6912F0100F12D0F9
:10345000DA6812F0100F0ED06FF010021A61082314
:1034600023772368DB6913F4407F46D02046FFF7BB
:103470009EFF0023237723681A6912F0010F03D0FF
:10348000DA6812F0010F3FD123681A6912F0800F39
:1034900003D0DA6812F0800F3DD123681A6912F464
:1034A000807F03D0DA6812F0800F3BD123681A695D
:1034B00012F0400F03D0DA6812F0400F39D12368C0
:1034C0001A6912F0200F03D0DA6812F0200F37D1FA
:1034D00010BDFFF76BFF2046FFF76AFF81E720462C
:1034E000FFF764FF2046FFF763FF92E72046FFF7F0
:1034F0005DFF2046FFF75CFFA3E72046FFF756FF7E
:103500002046FFF755FFB4E76FF001021A6120462D
:1035100002F024F8B8E76FF080021A61204600F04C
:10352000D8F8BAE76FF480721A61204600F0D2F83A
:10353000BCE76FF040021A612046FFF73AFFBEE792
:103540006FF020021A61204600F0C2F8C0E70000C8
:1035500030B503683E4A904214BF4FF0000E4FF062
:10356000010EB0F1804F14BF72464EF00102AAB9AD
:10357000384CA04214BF00240124374DA8420DD07E
:1035800064B904F1804404F58234A04214BF0024DD
:10359000012405F50065A84200D01CB123F070039A
:1035A0004C68234362BB2B4A904214BF0022012285
:1035B000294CA04224D01ABB02F1804202F582328B
:1035C000904214BF0022012204F50064A04217D0EB
:1035D000B2B9224A904214BF0022012204F59A3463
:1035E000A0420DD062B91E4A904214BF00220122AF
:1035F00004F50064A04203D012B91A4A904204D1E3
:1036000023F4407CCB6843EA0C0323F080034A692F
:10361000134303608A68C2620A688262124A904257
:1036200014BF73464EF0010363B90C4B984214BFAC
:103630000023012302F57052904203D013B90B4BC3
:10364000984201D10B6903630123436130BD00BF80
:103650000000014000080040000400400044014018
:1036600000E0004000E40040000401400048014048
:1036700060B310B5044690F83D3013B3022384F8CC
:103680003D30214651F8040BFFF762FF012384F817
:10369000483084F83E3084F83F3084F8403084F875
:1036A000413084F8423084F8433084F8443084F860
:1036B000453084F8463084F8473084F83D300020A7
:1036C00010BD80F83C30FFF71FFED7E701207047A0
:1036D0007047704770470000224AD2F8883043F4A0
:1036E0007003C2F88830204B1B6803F00F03062BD1
:1036F00006D81D4A136823F00F0343F00703136035
:103700001A4B1A6842F001021A6000221A61196805
:10371000174A0A401A60144B1B6813F0080F06D0B2
:10372000114A136823F00F0343F0070313600F4B94
:1037300000229A61DA611A620E4999620E49D962D1
:103740000E4919635A639963DA6319645A641968F4
:1037500021F4802119601A66094B43F2D2021A60E3
:10376000704700BF00ED00E0002000520044025806
:103770007FEDF6EA000202020000FF018002010173
:103780000040005200F1080343604FF0FF328260B6
:10379000C360036100230360704700230361704727
:1037A00043684B609A688A60516099600861036859
:1037B00001330360704730B40D68B5F1FF3F11D09D
:1037C00000F108031C465B681A68AA42FAD96368CC
:1037D0004B6099608C60616008610368013303602D
:1037E00030BC70470469F2E70369416882688A6007
:1037F000416851605A68824206D0002202611A680C
:10380000013A1A601868704782685A60F5E710B587
:10381000044601F0C7FCA26BE36B9A4204D000247B
:1038200001F0E2FC204610BD0124F9E710B5044682
:1038300001F0B8FCA36B23B9012401F0D5FC2046AC
:1038400010BD0024F9E770B504461546866B026C7E
:103850005AB903681BB100200136A66370BD8068A9
:1038600000F0E2FF0023A360F6E76DB94068FDF7C2
:103870007DF8226C636813446360A268934219D395
:10388000236863602846E7E7C068FDF76FF8226C9D
:103890005142E3689B1AE3602268934202D2A36814
:1038A0000B44E360022D01D00020D5E726B1013E94
:1038B0000020D1E72846CFE70020CDE70346026C81
:1038C0006AB110B50846D9681144D9609C68A14214
:1038D00001D31968D960D968FDF748F810BD704761
:1038E00038B5054601F05EFC95F8454064B201E04C
:1038F000013C64B2002C0ADD6B6A43B105F124007F
:1039000000F0E8FE0028F3D000F078FFF0E7FF2396
:1039100085F8453001F068FC01F044FC95F844401E
:1039200064B201E0013C64B2002C0ADD2B6943B1B2
:1039300005F1100000F0CEFE0028F3D000F05EFF8D
:10394000F0E7FF2385F8443001F04EFC38BD38B570
:10395000E0B10D46044601F025FC2368E26B216CC2
:1039600001FB0230A0600020A0636360013A02FB0B
:103970000133E360FF2384F8443084F84530FDB917
:10398000236963B901F030FC012038BD4FF05003CA
:1039900083F31188BFF36F8FBFF34F8FFEE704F1FE
:1039A000100000F097FE0028ECD04FF0E0234FF01D
:1039B0008052C3F8042DBFF34F8FBFF36F8FE1E741
:1039C00004F11000FFF7DEFE04F12400FFF7DAFE39
:1039D000D8E738B51D46049C0B4649B92460E0631E
:1039E000236401212046FFF7B2FF84F84C5038BD14
:1039F0002260F4E740B94FF0500383F31188BFF31E
:103A00006F8FBFF34F8FFEE710B584B01C4683B1B4
:103A10000B1E18BF0123002A08BF43F001038BB916
:103A20004FF0500383F31188BFF36F8FBFF34F8FB5
:103A3000FEE74FF0500383F31188BFF36F8FBFF39E
:103A40004F8FFEE7B1FA81F35B09002A18BF43F0FC
:103A5000010343B94FF0500383F31188BFF36F8F15
:103A6000BFF34F8FFEE750230393039B502B08D0E7
:103A70004FF0500383F31188BFF36F8FBFF34F8F65
:103A8000FEE7039B012384F8463000949DF818302C
:103A9000FFF79FFF204604B010BDF0B585B001923E
:103AA00088B10F461D460446B1B1022D20D1E36B0B
:103AB000012B1DD04FF0500383F31188BFF36F8F9C
:103AC000BFF34F8FFEE74FF0500383F31188BFF32E
:103AD0006F8FBFF34F8FFEE7036C002BE5D04FF0E5
:103AE000500383F31188BFF36F8FBFF34F8FFEE74F
:103AF00000F08AFE064658B9019B002B48D04FF0D3
:103B0000500383F31188BFF36F8FBFF34F8FFEE72E
:103B100000263DE02A4639462046FFF794FE636AB8
:103B20007BB948B14FF0E0234FF08052C3F8042D29
:103B3000BFF34F8FBFF36F8F01F056FB012005B02D
:103B4000F0BD04F1240000F0C5FD0028F4D04FF0D2
:103B5000E0234FF08052C3F8042DBFF34F8FBFF323
:103B60006F8FE9E701F040FB0020E8E702A800F0D2
:103B7000F7FD012619E0002384F8443021E00023FA
:103B800084F8453023E02046FFF7AAFE00F082FCCF
:103B900001F008FBA26BE36B9A42BBD3022DB9D0B4
:103BA000019B002BDED0002EE0D001F01DFB00F0C9
:103BB000D7FB01F0F7FA94F8442052B2B2F1FF3F7C
:103BC000D9D094F8452052B2B2F1FF3FD7D001F0DE
:103BD0000BFB01A902A800F0CFFDD8B92046FFF7E2
:103BE00016FE0028CFD0019904F1100000F03EFD30
:103BF0002046FFF775FE00F04DFC0028C8D14FF0BD
:103C0000E0234FF08052C3F8042DBFF34F8FBFF372
:103C10006F8FBDE72046FFF763FE00F03BFC0020FE
:103C20008DE72DE9F84390B10F4616461C46054630
:103C3000B1B1022C20D1EB6B012B1DD04FF0500302
:103C400083F31188BFF36F8FBFF34F8FFEE74FF001
:103C5000500383F31188BFF36F8FBFF34F8FFEE7DD
:103C6000036C002BE5D04FF0500383F31188BFF3B2
:103C70006F8FBFF34F8FFEE701F0BAFBEFF31189AF
:103C80004FF0500383F31188BFF36F8FBFF34F8F53
:103C9000AA6BEB6B9A4206D3022C04D0002089F366
:103CA0001188BDE8F88395F845804FFA88F8AB6B2A
:103CB000224639462846FFF7C6FDB8F1FF3F06D039
:103CC00008F101035BB285F845300120E7E76B6A34
:103CD0000BB90120E3E705F1240000F0FBFC18B16B
:103CE00026B101203060DAE70120D8E70120D6E7CD
:103CF000F0B585B0019290B10F460446C1B100F015
:103D000083FD064600BB019B002B5ED04FF05003A5
:103D100083F31188BFF36F8FBFF34F8FFEE74FF030
:103D2000500383F31188BFF36F8FBFF34F8FFEE70C
:103D3000036C002BE3D04FF0500383F31188BFF3E3
:103D40006F8FBFF34F8FFEE700263EE039462046D7
:103D5000FFF7B4FD013DA563236923B901F044FADF
:103D6000012005B0F0BD04F1100000F0B3FC002804
:103D7000F4D04FF0E0234FF08052C3F8042DBFF38E
:103D80004F8FBFF36F8FE9E701F02EFA0020E8E7CD
:103D900002A800F0E5FC012621E0002384F844306D
:103DA00029E0002384F845302BE02046FFF798FDFA
:103DB00000F070FB09E02046FFF792FD00F06AFB7F
:103DC0002046FFF733FD00283FD101F0EBF9A56B4A
:103DD000002DBBD1019B002BD6D0002ED8D001F0F6
:103DE00003FA00F0BDFA01F0DDF994F844305BB25B
:103DF000B3F1FF3FD1D094F845305BB2B3F1FF3F50
:103E0000CFD001F0F1F901A902A800F0B5FC00281B
:103E1000D1D12046FFF70AFD0028C6D0019904F150
:103E2000240000F023FC2046FFF75AFD00F032FB8F
:103E30000028CAD14FF0E0234FF08052C3F8042D80
:103E4000BFF34F8FBFF36F8FBFE7002089E70000FC
:103E50000023072B0CD8074A52F833200AB101334C
:103E6000F7E7044A42F8331002EBC3035860704787
:103E7000704700BF0409002070B504460D46164681
:103E800001F090F994F844305BB2B3F1FF3F0DD0EC
:103E900094F845305BB2B3F1FF3F0BD001F0A4F9C9
:103EA000A36B5BB12046FFF71BFD70BD002384F8B8
:103EB0004430EDE7002384F84530EFE732462946E9
:103EC00004F1240000F0EAFBECE70000084B1B685B
:103ED0001B6823B9074B4FF0FF321A607047044B41
:103EE0001B68DB68DB685A68024B1A60704700BFCA
:103EF00048090020F00D00202DE9F04780460D46CE
:103F000017469946089EDDF824A00A9C9200A52138
:103F1000206BFCF7C5FD236B6FF040423A4403EB86
:103F2000820727F00707B5B34FF0000CBCF10F0F65
:103F30000BD815F80C2004EB0C0383F8342015F88B
:103F40000C3013B10CF1010CF0E7002384F843307E
:103F5000372E00D93726E662E66400252565201D48
:103F6000FFF71BFC04F11800FFF717FC2461C6F1F2
:103F70003806A6616462656584F858504A46414631
:103F8000384601F0E5F82060BAF1000F01D0CAF818
:103F90000040BDE8F087002384F83430D8E7000003
:103FA00038B5002407E004EB840293000E4818445F
:103FB000FFF7E8FB0134372CF5D90C4D2846FFF705
:103FC000E1FB0B4C2046FFF7DDFB0A48FFF7DAFB6D
:103FD0000948FFF7D7FB0948FFF7D4FB084B1D60E2
:103FE000084B1C6038BD00BF50090020C40D0020E4
:103FF000D80D0020FC0D0020280E0020140E0020FB
:10400000480900204C09002010B5044601F0CAF808
:10401000224A136801331360214B1B685BB1214BAB
:104020001B686BB91E4B1B68DA6AE36A9A4207D8B1
:104030001B4B1C6004E01A4B1C601368012B29D039
:10404000194A1368013313606364E06A174B1B68F5
:10405000984201D9154B186000EB8000211D144BCC
:1040600003EB8000FFF79CFB01F0BEF80D4B1B68D3
:104070007BB10B4B1B68DA6AE36A9A4209D24FF0B4
:10408000E0234FF08052C3F8042DBFF34F8FBFF3EE
:104090006F8F10BDFFF784FFD2E700BFB00D002087
:1040A00044090020100E0020BC0D0020C00D00208F
:1040B0005009002010B5044690F8593063B1012B27
:1040C00011D0022B0ED04FF0500383F31188BFF3B1
:1040D0006F8FBFF34F8FFEE7006B00F0BDFF2046F0
:1040E00000F0BAFF10BD00F0B7FFFBE70F4B1B68F5
:1040F000D3B110B501F056F80D4BDB68DC68201D1C
:10410000FFF772FB0B4A1368013B1360074A136801
:10411000013B136001F068F82046FFF7CBFF034B2B
:104120001B68002BE6D110BD704700BFB40D002006
:10413000280E0020B00D002008B5FFF7D7FF074B71
:104140001B68012BF9D94FF0E0234FF08052C3F8E0
:10415000042DBFF34F8FBFF36F8FEEE750090020A0
:1041600070B504460D46194B1E68194B186804308B
:10417000FFF73AFBB4F1FF3F14BF00230123002DEA
:1041800008BF00236BB93444114B1B685C60A64226
:104190000ED9104B18680E4B19680431FFF70BFB52
:1041A00070BD0B4B196804310B48FFF7F9FAF7E7BC
:1041B0000A4B1868064B19680431FFF7FCFA084BE4
:1041C0001B68A342ECD9064B1C60E9E73C0E0020BB
:1041D000440900204C090020140E0020480900204A
:1041E000F00D002030B587B00B9C7CB10C9DB5B1B3
:1041F0005C250495049D5C2D1AD04FF0500383F389
:104200001188BFF36F8FBFF34F8FFEE74FF050035E
:1042100083F31188BFF36F8FBFF34F8FFEE74FF02B
:10422000500383F31188BFF36F8FBFF34F8FFEE707
:10423000049D0C9D2C63022485F8594000240394AE
:10424000029505AC01940A9C0094FFF755FE0C986A
:10425000FFF7DAFE059807B030BD2DE9F04385B0D1
:104260000746884614461E46900000F077FE00B3CD
:1042700081465C2000F072FE0546B0B1C0F8309077
:10428000E5B1002385F85930039302950D9B019306
:104290000C9B00933346224641463846FFF72CFEDE
:1042A0002846FFF7B1FE012005E0484600F0D4FEA5
:1042B000E6E74FF0FF3005B0BDE8F0834FF0FF3088
:1042C000F9E7000010B588B000240594069407AA09
:1042D00006A905A800F0C6FD059B0293069B019365
:1042E00000942346079A18491848FFF77BFF184B9C
:1042F000186040B100F050FB012806D0B0F1FF3F3C
:1043000018D008B010BD0020F6E74FF0500383F33B
:104310001188BFF36F8FBFF34F8F0E4B4FF0FF32FB
:104320001A600D4B01221A600C4B00221A6000F03B
:10433000D3FFE6E74FF0500383F31188BFF36F8F8D
:10434000BFF34F8FFEE700BF9067000839410008B8
:10435000EC0D0020F00D0020100E00203C0E00207F
:10436000024A136801331360704700BFB80D002084
:10437000014B1868704700BF3C0E0020F8B53A4B5F
:104380001B68002B69D1394B1D6801351D60C5B90B
:10439000374B1B681B6843B14FF0500383F3118800
:1043A000BFF36F8FBFF34F8FFEE7314A1168314B78
:1043B000186810601960304A136801331360FFF702
:1043C00085FD2E4B1B68AB423DD900272C4B1B684B
:1043D000DB6A03EB83039A002A4B9B58012B00D91D
:1043E0000127294B1B68002B3CD001273AE001270D
:1043F0001F4B1B681B6843B31D4B1B68DB68DC68E5
:1044000063689D4226D3261D3046FFF7EDF9A36A67
:104410001BB104F11800FFF7E7F9E36A1B4A1268C1
:10442000934201D9194A136003EB83039A00314682
:1044300014481044FFF7B4F9E26A114B1B68DB6AB9
:104440009A42D4D2D4E70027D2E70C4B4FF0FF3288
:104450001A60BBE7094A1360B8E70D4A13680133D5
:10446000136000273846F8BDB80D00203C0E002030
:10447000480900204C090020F40D0020F00D002018
:104480004409002050090020400E0020C00D0020EB
:10449000F80D002038B5354B1B6843B94FF0500379
:1044A00083F31188BFF36F8FBFF34F8FFEE700F0E8
:1044B00079FE2E4B1A68013A1A601B68002B4FD107
:1044C0002B4B1B680BB900244BE00024294B1B68C5
:1044D0001BB3284BDB68DC6804F11800FFF784F994
:1044E000251D2846FFF780F9E06A234B1B68984298
:1044F00001D9214B186000EB800029461F4B03EBCC
:104500008000FFF74DF9E26A1D4B1B68DB6A9A4297
:10451000DCD31C4B01221A60D8E70CB1FFF7D6FCA4
:10452000194B1C6884B9174B1C68D4B14FF0E023B9
:104530004FF08052C3F8042DBFF34F8FBFF36F8F3E
:1045400001240EE0013C07D0FFF718FF0028F9D046
:104550000C4B01221A60F5E70B4B00221A60E2E7D0
:10456000002400F041FE204638BD00BFB80D0020F9
:10457000B00D0020FC0D0020C00D002050090020CF
:1045800044090020400E0020F80D002010B5A8B10D
:104590000446104B1B6843B14FF0500383F311885E
:1045A000BFF36F8FBFF34F8FFEE7FFF7D9FE0021F8
:1045B0002046FFF7D5FDFFF76DFF48B94FF0E02328
:1045C0004FF08052C3F8042DBFF34F8FBFF36F8FAE
:1045D00010BD00BFB80D00201F4B1B681BB11F4B47
:1045E00001221A6070471D4B00221A601C4B1B6889
:1045F00003EB83018A001B498A585AB90BB1013B6E
:10460000F6E74FF0500383F31188BFF36F8FBFF3CA
:104610004F8FFEE703EB830082000A445068406836
:10462000506003EB830C4FEA8C020832114488423D
:104630000BD003EB830291000A4A0A445268D16806
:10464000094A1160064A136070474068624691004B
:10465000044A0A445060ECE7B80D0020400E0020E8
:10466000C00D0020500900204409002058B110B5A9
:104670000C46094A11681831FFF79DF801212046C0
:10468000FFF76EFD10BD4FF0500383F31188BFF3A9
:104690006F8FBFF34F8FFEE74409002038B570B12C
:1046A0000D4614460A4A11681831FFF779F80CB123
:1046B0004FF0FF3521462846FFF752FD38BD4FF039
:1046C000500383F31188BFF36F8FBFF34F8FFEE763
:1046D0004409002038B5C368DC6824B304F1180528
:1046E0002846FFF781F8184B1B682BBB251D284671
:1046F000FFF77AF8E06A154B1B68984201D9134B13
:10470000186000EB80002946114B03EB8000FFF797
:1047100047F8E26A0F4B1B68DB6A9A4211D9012005
:104720000D4B186038BD4FF0500383F31188BFF371
:104730006F8FBFF34F8FFEE729460848FFF730F829
:10474000E7E70020EEE700BFB80D0020C00D002015
:104750005009002044090020400E0020FC0D0020DC
:10476000034B1B680360034B1B684360704700BF2B
:10477000F40D00203C0E0020F8B5C8B10C460546EB
:10478000F9B100F00FFD1B4B19686B68C81A22685D
:10479000B2F1FF3F26D0184E36682F68B74201D0DD
:1047A0008B4224D9824215D80023236001241AE0C9
:1047B0004FF0500383F31188BFF36F8FBFF34F8F18
:1047C000FEE74FF0500383F31188BFF36F8FBFF301
:1047D0004F8FFEE75B1A134423602846FFF7C0FFA4
:1047E000002400E0002400F0FFFC2046F8BD012476
:1047F000F9E700BF3C0E0020F40D0020014B012220
:104800001A607047400E0020054B1B6833B1054B02
:104810001B680BB1002070470220704701207047D1
:10482000100E0020B80D002000283BD038B50446FB
:104830001E4B1B68834208D04FF0500383F311884E
:10484000BFF36F8FBFF34F8FFEE7036D43B94FF098
:10485000500383F31188BFF36F8FBFF34F8FFEE7D1
:10486000013B0365C16AC26C91421DD00BB10020AF
:1048700038BD051D2846FEF7B7FFE06CE062C0F1C9
:104880003803A3610A4B1B68984201D9084B186092
:1048900000EB80002946074B03EB8000FEF780FF0A
:1048A0000120E5E7002070470020E1E744090020EF
:1048B000C00D002050090020064B1A6813682BB960
:1048C0000123036023B9D368186870470023F8E711
:1048D00000207047440E002008B5416000619142FD
:1048E0000CD8D21A83699A4201D3012008BD011D58
:1048F0000B4B1868FEF75FFF0020F7E79A422CBFCA
:1049000000220122994238BF00220AB10120EDE7BE
:10491000011D044B1868FEF74EFF0020E6E700BFBC
:10492000480E0020440E002030B583B000F03AFC61
:10493000114B1B681BB100F057FC03B030BD0F4D8D
:104940002846FEF71FFF0E4C2046FEF71BFF0D4BBF
:104950001D600D4B1C60002300930C4B0C4A102172
:104960000A20FFF747F8044B18600028E3D00949F4
:10497000FFF76EFADFE700BF680F0020EC0E0020A3
:10498000000F0020440E0020480E0020180F0020C9
:104990004C0E00209867000810B588B0FFF7C4FFE0
:1049A000124B1B68CBB100240594069407AA06A9F4
:1049B00005A800F063FA059B0293069B019302236E
:1049C00000932346079A0A490A48FFF70BFC0A4B53
:1049D000186010B1012008B010BD4FF0500383F3F0
:1049E0001188BFF36F8FBFF34F8FFEE7680F002072
:1049F000A0670008014D00086C0F0020B8B19C466C
:104A000003461848006858B300B585B0009101927C
:104A1000029305291CDCFFF7F7FE022810D00023C3
:104A20001A4669460F480068FFF737F815E04FF05F
:104A3000500383F31188BFF36F8FBFF34F8FFEE7EF
:104A40000023069A694607480068FFF726F804E045
:104A5000002362466946FFF7E4F805B05DF804FB01
:104A600000207047680F002070B582B01B4B1B6898
:104A70001A6862B3DB681E68DC68251D2846FEF7ED
:104A8000B3FE236A2046984794F8283013F0040FA9
:104A9000ECD0A36933449E4207D263602461294667
:104AA0000E4B1868FEF787FEE0E7002100910B46E9
:104AB00032462046FFF7A2FF0028D7D14FF050031F
:104AC00083F31188BFF36F8FBFF34F8FFEE7044A64
:104AD000106802490860136002B070BD440E0020E7
:104AE000480E002038B50546FFF742FC0446074B48
:104AF0001B68834205D800232B60044B1C602046B2
:104B000038BDFFF7B1FF01232B60F6E7140F00203B
:104B100070B582B006460D4617490968C968CC6869
:104B2000201DFEF761FE94F828C01CF0040F08D188
:104B30002CF0010C84F828C0236A2046984702B064
:104B400070BDA16933462A4631442046FFF7C4FEB2
:104B50000028F1D0002100910B4632462046FFF795
:104B60004DFF0028E8D14FF0500383F31188BFF3C5
:104B70006F8FBFF34F8FFEE7440E002070B582B0F9
:104B800006460C46FFF7ECFB01A8FFF7ABFF019BC5
:104B90003BBB0546B04228BF002C19D024B1134AB4
:104BA00012681268DAB901242246711B104B18688A
:104BB000FFF762F9FFF76EFCA8B94FF0E0234FF062
:104BC0008052C3F8042DBFF34F8FBFF36F8F0AE0FD
:104BD000FFF760FC29463046FFF79AFF03E01C46CA
:104BE000E2E7FFF757FC02B070BD00BF480E00209F
:104BF000680F002010B588B002E0049B002B0FDA8C
:104C0000002204A93D4B1868FFF772F8002873D002
:104C1000049B002BF1DA07990698059B9847ECE76F
:104C2000069C636913B1201DFEF7DEFD03A8FFF7A4
:104C300059FF049B092BE3D8DFE803F00505053095
:104C400037500505303794F8283043F0010384F8D5
:104C50002830059BA169024619442046FFF73CFE17
:104C60000028CDD0236A2046984794F8283013F0C6
:104C7000040FC5D0A269002100910B46059802449B
:104C80002046FFF7BBFE0028BAD14FF0500383F354
:104C90001188BFF36F8FBFF34F8FFEE794F8283072
:104CA00023F0010384F82830AAE794F8283043F071
:104CB000010384F828300599A16131B10346024609
:104CC00001442046FFF708FE9AE74FF0500383F3B4
:104CD0001188BFF36F8FBFF34F8FFEE794F8283032
:104CE00013F0020F04D023F0010384F8283087E783
:104CF000204600F0B1F983E708B010BD680F00202E
:104D000000B583B001A8FFF7D7FD0199FFF736FF83
:104D1000FFF770FFF6E708B54FF0E0231B69FFF7D8
:104D200073FD012800D108BD00F0ACFAFBE70000DC
:104D3000EFF305832BB9064B186828B901221A60D6
:104D400070476FF0050070474FF0FF30704700BFAD
:104D5000CC110020EFF3058373B90A4B1B68012BBC
:104D60000DD110B50024084BDC77064B02221A60E7
:104D7000FFF7A8FA204610BD6FF0050070474FF00E
:104D8000FF307047CC11002000ED00E0F0B587B097
:104D900000240594EFF3058474BB68B322B315684F
:104DA000936903B918235C1E372C49D8546814F052
:104DB000010F47D156696EB14FEA960C94682CB139
:104DC000D7685B2F02D9176907B1C6B92CB14FF06C
:104DD000FF340EE04FF0800CF0E7D4688CB9146912
:104DE00094B14FF0FF3404E01546002418234FF02F
:104DF000800C012C0AD0ACB1059807B0F0BD01249D
:104E0000F7E74FF0FF34F4E70024F2E71469926803
:104E10000292019400930B4662462946FFF7E2F99D
:104E20000590E9E705AA019200930B461FFA8CF260
:104E30002946FFF712FA0128DED000230593DBE7AD
:104E40000020DAE70020D8E708B5EFF3058333B98F
:104E500008B9002008BDFFF799FB0020FAE76FF0C2
:104E60000500F7E7034B0360034B0B6080231360DF
:104E7000704700BF70110020700F0020034B0360CB
:104E8000034B0B604FF4807313607047D015002004
:104E9000D0110020124A12F0070F1ED0D11D21F0B0
:104EA0000701C1F57A5313440A460E4802600021F7
:104EB00041601344083B23F007030B48036059602B
:104EC0001960991A51601360084B1960084B1960FA
:104ED000084B4FF000421A6070474FF47A53E4E7F2
:104EE00030160020C45400202C160020B854002096
:104EF000B4540020B0540020164B1A461B6883425D
:104F0000FBD3516802EB010C844509D0416800EBEA
:104F1000010C634509D00360904219D010607047BE
:104F20004068014451601046F0E710B40A4C246810
:104F3000A3420BD05B681944416013681B6803608F
:104F4000904200D010605DF8044B70470460F7E7B2
:104F5000704700BFC45400202C16002070B50546D1
:104F6000FFF7FEF9364B1B68A3B1364B1B681D4299
:104F70004ED135B1083515F0070F02D025F00705E1
:104F80000835002D46D0304B1B68AB4251D32F4A19
:104F9000146804E0FFF77EFFE7E722461C466368DB
:104FA000AB4202D22368002BF7D1254B1B68A342EA
:104FB00041D0166808362368136063685B1B102BAA
:104FC00010D9601910F0070F08D04FF0500383F389
:104FD0001188BFF36F8FBFF34F8FFEE743606560AB
:104FE000FFF78AFF626818490B689B1A0B60184923
:104FF00009688B4201D216490B60124B1B681343A0
:10500000636000232360134A13680133136002E0D6
:10501000002600E00026FFF73DFA16F0070F0CD03F
:105020004FF0500383F31188BFF36F8FBFF34F8F9F
:10503000FEE70026EFE70026EDE7304670BD00BF33
:105040002C160020B0540020B4540020C45400207A
:10505000B8540020BC540020002834D038B5044691
:10506000A0F1080550F8043C174A1268134208D111
:105070004FF0500383F31188BFF36F8FBFF34F8F4F
:10508000FEE750F8081C41B14FF0500383F311883C
:10509000BFF36F8FBFF34F8FFEE723EA020340F8A1
:1050A000043CFFF75DF954F8041C084A13680B44EC
:1050B00013602846FFF720FF054A13680133136089
:1050C000FFF7E8F938BD7047B0540020B454002011
:1050D000C054002082B0002301930D4B1B68B3F134
:1050E000FF3F08D04FF0500383F31188BFF36F8F59
:1050F000BFF34F8FFEE74FF0500383F31188BFF3E8
:105100006F8FBFF34F8F019B002BFCD002B0704715
:105110005008002008480068006880F308884FF0B5
:10512000000080F3148862B661B6BFF34F8FBFF3FF
:105130006F8F00DF00BF000008ED00E0DFF80C001B
:10514000016841F4700101607047000088ED00E0E3
:105150004FF0807340F8043C21F0010140F8081C36
:10516000054B40F80C3C40F8202C6FF0020340F84F
:10517000243C4438704700BFD550000800000000B0
:10518000074B19680868B0E8F04F80F30988BFF34F
:105190006F8F4FF0000080F311887047AFF30080ED
:1051A000440900204FF0500383F31188BFF36F8F41
:1051B000BFF34F8F0B4A136801331360012B00D0EC
:1051C00070474FF0E023D3F8043D13F0FF0FF7D002
:1051D0004FF0500383F31188BFF36F8FBFF34F8FEE
:1051E000FEE700BF50080020094B1B6843B94FF091
:1051F000500383F31188BFF36F8FBFF34F8FFEE728
:10520000013B034A13600BB983F31188704700BF59
:105210005008002000000000000000000000000016
:10522000EFF30980BFF36F8F154B1A681EF0100F54
:1052300008BF20ED108A20E9F04F10602DE9090029
:105240004FF0500080F31188BFF34F8FBFF36F8F83
:10525000FFF7C2F94FF0000080F3118809BC19680C
:105260000868B0E8F04F1EF0100F08BFB0EC108ACD
:1052700080F30988BFF36F8F704700BFAFF30080E2
:105280004409002008B54FF0500383F31188BFF3A1
:105290006F8FBFF34F8FFFF771F828B14FF0E02306
:1052A0004FF08052C3F8042D002383F3118808BD0A
:1052B0004FF0E022002313619361054B1B68054901
:1052C000A1FB03139B09013B536107231361704743
:1052D00048080020D34D62104FF0E023D3F8002D92
:1052E0003D4B9A421CD04FF0E023D3F8002D3B4BAE
:1052F0009A421ED030B583B0394B1A78D2B201929F
:10530000FF221A701B78DBB28DF803309DF8033052
:1053100003F05003334A1370334B07221A601BE02B
:105320004FF0500383F31188BFF36F8FBFF34F8F9C
:10533000FEE74FF0500383F31188BFF36F8FBFF385
:105340004F8FFEE7284A1368013B13609DF8033036
:105350005B00DBB28DF803309DF8033013F0800F53
:10536000F0D1214B1B68032B08D04FF0500383F37F
:105370001188BFF36F8FBFF34F8FFEE71B021A4AEE
:10538000136003F4E0631360019BDBB2144A1370F3
:105390004FF0E024D4F8203D43F47003C4F8203DDE
:1053A000D4F8203D43F07043C4F8203DFFF780FF60
:1053B00000250E4B1D60FFF7C1FED4F8343F43F0CB
:1053C0004043C4F8343FFFF7A5FEFFF705F9FFF7A8
:1053D00081FE284603B030BD71C20F4170C20F413B
:1053E00000E400E0CC540020D054002050080020FD
:1053F000EFF305830F2B0FD9114A9B5CDBB2114AE7
:1054000012789A4208D94FF0500383F31188BFF302
:105410006F8FBFF34F8FFEE74FF0E023D3F80C3DC3
:1054200003F4E063084A1268934208D94FF050032E
:1054300083F31188BFF36F8FBFF34F8FFEE7704781
:10544000F0E300E0CC540020D05400204160028101
:1054500001220260704708B5036833B90123036075
:1054600001894068FDF7DCFE08BD0023F7E7000076
:10547000F0B58BB000240594069407940894099421
:10548000294BD3F8E02042F00402C3F8E020D3F81F
:10549000E02002F004020192019AD3F8E02042F0E9
:1054A0008002C3F8E020D3F8E02002F080020292EC
:1054B000029AD3F8E02042F00202C3F8E020D3F8C9
:1054C000E02002F002020392039AD3F8E02042F0B7
:1054D0001002C3F8E020D3F8E03003F01003049387
:1054E000049B124F22464FF480413846FDF792FE4E
:1054F0000F4D224602212846FDF78CFE4FF48043D3
:105500000593012606960794089405A93846FDF7E9
:1055100077FD0223059306960794089405A928466B
:10552000FDF76EFD0BB0F0BD0044025800040258B8
:105530000010025808B5074B1868FFF78CFFC82009
:10554000FFF782FC044B1868FFF785FFC820FFF7C0
:105550007BFCF0E7D4540020D854002008B5026842
:10556000034B9A4200D008BDFDF7BCFEFBE700BF2D
:105570000000014072B6FEE700B59DB04C2200214C
:1055800009A8FBF78DFA2022002101A8FBF788FA71
:105590000220FDF74FFE00230093214B9A6922F46D
:1055A00040429A619B6903F440430093009B1C4B6B
:1055B0009B6913F4005FFAD0012309934FF4803301
:1055C0000A930223129313930422149282221592B7
:1055D0001693179318930823199300231A931B9378
:1055E00009A8FCF775FFB0B93F2301930323029389
:1055F00000230393082304934023059306934FF459
:10560000806207920893022101A8FDF751FB20B99F
:105610001DB05DF804FBFFF7ADFFFFF7ABFF00BF68
:105620000048025810B50C2000F0AEFC04460222DF
:105630001649FFF70BFF164B1C600C2000F0A4FC72
:1056400004464FF480421349FFF700FF124B1C60E1
:10565000FDF71AFEFFF790FFFFF70AFFFFF768FB61
:105660000E4A00210E48FFF791FB0E4B1860FFF722
:1056700071FBFEE70C21204600F040F800F040F8F6
:105680000C21204600F03AF800F03AF800100258D9
:10569000D454002000040258D8540020B4670008F5
:1056A00035550008DC540020DFF834D0FEF714F83C
:1056B0000C480D490D4A002302E0D458C45004336D
:1056C000C4188C42F9D30A4A0A4C002301E0136043
:1056D0000432A242FBD3FAF76BFEFFF7A3FF704739
:1056E00000000220000000205C0800206C6C000814
:1056F0005C08002000550020FEE7000000F0A2BD7D
:105700001EB400F08FF81EBCFCF70CFCF0B502785C
:10571000472A83B00C461D4619D00023264E01931C
:10572000336830469B68984778B1019B1B680193AA
:1057300002272368314620461E6901AA0123B0478B
:1057400018BB0746384603B0F0BD0127F1E74378A0
:105750004E2BE2D18378552BDFD1C378432BDCD19C
:105760000379462B1BD00379432BD6D143792B2BBE
:10577000D3D183792B2BD0D1C379012BCDD809D0AC
:1057800050F8206C58300190CAE7019B2B603846D6
:1057900003B0F0BD50F8200C50F8786CF3E7437973
:1057A0004F2BE0D18379522BDDD1C379002BDAD195
:1057B000024E0193B4E700BFF4670008EC670008ED
:1057C00010B5044600F07AF8224612F82039472B2B
:1057D00004D0836823BB8260012010BD63784E2B08
:1057E000F7D1A378552BF4D1E378432BF1D123796A
:1057F000432BEED163792B2BEBD1A3792B2BE8D163
:10580000E379012BE5D854F8043C0133012B44F82B
:10581000043CE1D1836844F8083C8260012010BD5B
:1058200000F08AFB08B500F049F8836883B393F869
:105830002020472A04D00022826003F1200008BD06
:1058400093F821204E2AF6D193F82220552AF2D13E
:1058500093F82320432AEED193F82420432AEAD157
:1058600093F825202B2AE6D193F826202B2AE2D183
:1058700093F82720012ADED8DA69013ADA61002A92
:10588000DBD19969816000229A6103F1200008BD93
:1058900000F052FB704700BF704700BF00487047E0
:1058A000D867000810B504210446FFF727FF2046FB
:1058B00010BD00BF00487047E0540020004870470A
:1058C000E0540020502870B51DD0844600F00F0031
:1058D0000C2855D8DFE800F0074426071E5454541E
:1058E000542A22071E00104650F8046B4EB10CF0EB
:1058F0007004102C08BF11460E441CF0800F18BF16
:1059000036681E6070BD033222F0030050F8046B4D
:105910001E6070BD104650F8086BE7E7104630F97E
:10592000026BE3E7104630F8026BDFE70026104613
:10593000344610F8015B05F07F0E0EFA04FE15F0F8
:10594000800F46EA0E0604F10704F2D11F2CCDD8D1
:105950006D06CBD54FF0FF3505FA04F42643C6E7B4
:1059600000261046344610F8015B05F07F0E0EFA53
:1059700004FE2D0646EA0E0604F10704F3D4B5E74B
:10598000FAF7F2FCFF2822D008B500F07003302BA4
:1059900018D006D8202B0BD1BDE80840084600F0EF
:1059A000DEBE402B0AD1BDE808400846FCF79ABC91
:1059B00002D810F0600F03D0FAF7D6FC502BFBD1C1
:1059C000002008BDBDE80840084600F0C5BE002024
:1059D000704700BFF8B50C461546064608B1FCF7FF
:1059E00081FC286014F8017BFF2F29D168602046D4
:1059F00010F8013B2B75FF2B33D0102300242B759F
:105A0000224610F8011B01F07F039340090644EA87
:105A1000030402F10702F4D40444EC6010F8013BE3
:105A20006B750024224610F8011B01F07F039340A0
:105A30001C430B0602F10702F5D404442C61F8BDA7
:105A400031463846FFF79EFF224601462B1D384659
:105A5000FFF738FF0446204610F8013B2B75FF2B5B
:105A6000CBD10023EB60D9E72DE9F04F00F0030420
:105A700093B00023012C08938846174613D0022CBC
:105A800008D139464046FCF717FC40B9082013B04E
:105A9000BDE8F08F002C00F09480FAF765FC092037
:105AA00013B0BDE8F08F0DF1300A10F00804CDF806
:105AB00000A000F09D8044F0020202920C910C22A2
:105AC00019463846FBF79EFE3846FCF711FC834624
:105AD0000028D6D0524601463846FFF77BFF3946AC
:105AE00005469DF84400FFF74DFF0DF12C090023FA
