:020000040800F2
:1000000000000220E95200082120000823200008F7
:1000100025200008272000082920000800000000F3
:10002000000000000000000000000000514E000829
:100030002B20000800000000F14E0008DF490008F6
:100040003953000839530008395300083953000860
:100050003953000839530008395300083953000850
:100060003953000839530008395300083953000840
:100070003953000839530008395300083953000830
:100080003953000839530008395300083953000820
:100090003953000839530008395300083953000810
:1000A000395300082D20000839530008395300083F
:1000B00039530008395300083953000839530008F0
:1000C00039530008395300083953000839530008E0
:1000D00039530008395300083953000839530008D0
:1000E0003953000839530008000000003953000854
:1000F00039530008395300083953000839530008B0
:10010000395300083953000839530008395300089F
:10011000395300083953000839530008395300088F
:10012000395300083953000839530008395300087F
:10013000395300083953000839530008395300086F
:1001400000000000000000000000000000000000AF
:10015000395300083953000839530008395300084F
:10016000395300083953000839530008395300083F
:10017000395300083953000839530008395300082F
:10018000395300083953000839530008395300081F
:10019000395300083953000839530008395300080F
:1001A0003953000839530008395300080000000093
:1001B00039530008395300083953000839530008EF
:1001C0003953000839530008000000000000000007
:1001D000000000000000000039530008000000008B
:1001E000000000000000000000000000000000000F
:1001F00000000000000000003953000839530008D7
:100200003953000839530008000000003953000832
:10021000395300083953000839530008395300088E
:1002200039530008000000003953000800000000A6
:100230003953000839530008000000003953000802
:10024000395300083953000839530008395300085E
:10025000395300083953000839530008395300084E
:10026000395300083953000839530008395300083E
:1002700039530008395300083953000800000000C2
:10028000395300083953000839530008395300081E
:1002900000000000395300083953000839530008A2
:1002A00039530008395300083953000839530008FE
:1002B00039530008395300083953000839530008EE
:0C02C00039530008395300083953000876
:1002D0000348044B834202D0034B03B118477047D5
:1002E000540800205408002000000000054806497A
:1002F0000B1AD90F01EBA301491002D0034B03B134
:1003000018477047540800205408002000000000DF
:1003100010B5064C237843B9FFF7DAFF044B13B14D
:100320000448AFF300800123237010BD540800205F
:10033000000000005053000808B5044B1BB10449ED
:100340000448AFF30080BDE80840CFE7000000009C
:100350005808002050530008002301461A4618464A
:1003600000F026B938B5084B084D5B1B9C1007D030
:10037000043B1D44013C55F804399847002CF9D141
:10038000BDE8384004F0EABFFC540008F854000807
:1003900070B50D4E0D4D761BB61006D0002455F8E5
:1003A000043B01349847A642F9D1094E094D761B0A
:1003B00004F0CEFFB61006D0002455F8043B0134FB
:1003C0009847A642F9D170BDF0540008F0540008D7
:1003D000F8540008F0540008844641EA000313F082
:1003E00003036DD1403A41D351F8043B40F8043B3C
:1003F00051F8043B40F8043B51F8043B40F8043BFF
:1004000051F8043B40F8043B51F8043B40F8043BEE
:1004100051F8043B40F8043B51F8043B40F8043BDE
:1004200051F8043B40F8043B51F8043B40F8043BCE
:1004300051F8043B40F8043B51F8043B40F8043BBE
:1004400051F8043B40F8043B51F8043B40F8043BAE
:1004500051F8043B40F8043B51F8043B40F8043B9E
:1004600051F8043B40F8043B403ABDD2303211D33E
:1004700051F8043B40F8043B51F8043B40F8043B7E
:1004800051F8043B40F8043B51F8043B40F8043B6E
:10049000103AEDD20C3205D351F8043B40F8043B3E
:1004A000043AF9D2043208D0D2071CBF11F8013B3C
:1004B00000F8013B01D30B8803806046704700BF02
:1004C000082A13D38B078DD010F003038AD0C3F111
:1004D0000403D21ADB071CBF11F8013B00F8013BF3
:1004E00080D331F8023B20F8023B7BE7043AD9D3B2
:1004F000013A11F8013B00F8013BF9D20B78037087
:100500004B7843708B78837060467047830730B5B3
:1005100048D0541E002A3FD0CAB2034601E0013C35
:100520003AD303F8012B9D07F9D1032C2DD9CDB275
:1005300045EA05250F2C45EA054536D9A4F11002F8
:1005400022F00F0C03F1200EE6444FEA121C03F1D7
:10055000100242E9045542E9025510327245F8D1C1
:100560000CF1010214F00C0F03EB021204F00F0C5B
:1005700013D0ACF1040323F003030433134442F813
:10058000045B9342FBD10CF003042CB1CAB21C44AF
:1005900003F8012B9C42FBD130BD64461346002C6E
:1005A000F4D1F9E703461446BFE71A46A446E0E74C
:1005B00070B4184C2568D5F848411CB365681F2DE8
:1005C00025DC38B9AB1C0135656044F823100020E8
:1005D00070BC704704EB850C0228CCF88820D4F856
:1005E00088614FF0010202FA05F246EA0206C4F8F9
:1005F0008861CCF80831E5D1D4F88C311343C4F8C4
:100600008C31DFE705F5A674C5F84841D6E74FF011
:10061000FF30DDE76853000803685A004CBF43F021
:10062000004323F000431844704700BF2DE9F8430E
:1006300029B34F1E044615463E464FF0000808EB0E
:10064000060101EBD171491004EBC1094846FFF7DF
:10065000E3FF0346C80008308F42204409D0AB4274
:1006600009D8FFF7D9FF0138A8420AD201F10108E1
:10067000E5E7AB4205D9884501D04E1EDFE74FF0D4
:1006800000094846BDE8F883012807D0022807D0B2
:10069000044B00280CBF18460020704702487047E2
:1006A00002487047610D0008650D0008690D0008DB
:1006B00030B5234B83B004468D1E3BB301A92846B9
:1006C000AFF30080E8B101992A46FFF7AFFF01467A
:1006D000B8B1FFF7A1FF4B68A064012B2CD0002B11
:1006E00001F1040024DBFFF797FF0023C4E91303A3
:1006F0000368002B11DBFFF78FFF2061002003B0A0
:1007000030BD00230920236103B030BD0D4B0E49DD
:10071000C91AC91018460191D6E7C3F30360FFF761
:10072000B3FF0028206114BF0020092003B030BDB2
:100730000123C4E91303DBE7002323610520DEE77F
:100740000000000000540008F05400080368DA07B5
:1007500010B5044606D49B0700F1480009D500F007
:100760005BFC2368590709D51A070ED5DB0613D59C
:1007700010BD00F049FC23685907F5D404F1D000FE
:1007800000F052FC23681A07F0D404F5A87000F0BA
:1007900053FC2368DB06EBD404F5E870BDE8104099
:1007A00000F08EBC092070470346006800B1184471
:1007B000704700BF704700BF70B504460E46316CED
:1007C0002046FFF775FF054688B9326C62612369E0
:1007D00032462146012098470828F0D0072806D144
:1007E0002846316CFFF7E6FF301D00F001FC00F0F9
:1007F0007DFE00BF2DE9F0470D1DD0F80C80D0F82C
:100800001890074614460FCDADF5727D0DF10C0C16
:10081000ACE80F000FCDACE80F000FCDACE80F0037
:1008200095E80F0002AE4FF0000E8CE80F00C6F8FE
:1008300000E020E0336C7B614FF4F07231467AA81F
:10084000FFF7CAFD3B697AAA394650469847889B0C
:1008500073642146CDE9006905463B463A460120CE
:10086000C0470446E0B94FF4F0727AA93046FFF76A
:10087000B3FD082D1AD1316C3846FFF719FF093442
:100880005FFA84FA05460028D4D0B36B73643A4605
:10089000CDE900693B464AF010010120C04700B194
:1008A000092528460DF5727DBDE8F087072DF7D1A3
:1008B0002046316CFFF77EFF03A800F099FB00BFD4
:1008C000406C7047F0B5CB6B0B6401F1040C0E4625
:1008D0000546BCE80F00F9B001AC0FC4BCE80F003E
:1008E0000FC4BCE80F000FC49CE80F004FF0FF37A7
:1008F00084E80F00009706E02B696A46294698476E
:100900000828044608D110992846FFF7D1FE002890
:10091000F2D0092079B0F0BD6846FFF717FF062C2A
:10092000F7D131462846FFF747FF00BFC160D96BBA
:1009300082611964002219465CE700BF70B5C66881
:1009400043690B64AEB903690A4604460D46014685
:1009500002209847072805D008280FD129462046AD
:10096000FFF72AFF3046296CFFF724FF281D00F00F
:100970003FFB0122FFF73EFF00F0B8FD00F0B6FD9F
:10098000C2681AB1CA6B0A64002233E79AE700BF53
:10099000704700BF836801460BB1012018477047BC
:1009A000012912D009D873B90F2A0CD800EB8202A2
:1009B00018465368009A136070470339012994BFA1
:1009C000012002207047022070470846704700BF90
:1009D00000B585B00A46002303A900911946FFF728
:1009E000DFFF039805B05DF804FB00BF012912D0BA
:1009F00009D873B90F2A0CD800EB8200009A12684C
:100A00004260184670470339012994BF0120022033
:100A10007047022070470846704700BF10B584B089
:100A2000002303AC039200940A461946FFF7DEFF49
:100A300004B010BD70B5D36B136402F1040C05460D
:100A40000C46BCE80F00ADF50E7D0DF15C0EAEE876
:100A50000F00BCE80F00AEE80F00BCE80F00AEE8E6
:100A60000F009CE80F004FF0FF368EE80F0016963F
:100A700010E0FFF7D3FF214616A8A847034616AAA1
:100A80006946082083B9049B9847052806460CD080
:100A9000092809D026996846FFF70AFE03466A46E8
:100AA0000C2116A8002BE4D0092616A8FFF74EFE4D
:100AB00030460DF50E7D70BD2DE9F04FCC6C89B040
:100AC0001E4654F8043B06940D46174600F00308F2
:100AD000002E79D01A0C1B0405938DF81D200223DB
:100AE000D2B204EB82048DF81C302B6DB8F1020FEA
:100AF00008BFAC6B13F001030CD005A9384600F019
:100B000079FB18B9082009B0BDE8F08F092009B0B9
:100B1000BDE8F08FD4F800A0BAF1000FEDD001933A
:100B200000F008030293022E4AD0B4F800A0B4F8F3
:100B300002900434AB6C29F0010B0F2138469B4422
:100B4000FFF746FF834539D82AF001039B448345CC
:100B500094BF002001204FEA490303F002030AF08A
:100B6000010A43EA0A03012B49D0022B32D0002BA1
:100B7000CCD1B8F1000F02D0002840F0CD80043471
:100B8000D4F800A0BAF1000FCDD105A9384600F085
:100B900031FB0028BAD1019B002BB3D00F2138467E
:100BA000FFF716FF0E2102463846FFF737FF38469B
:100BB0006A4A0F21FFF732FF0720A8E70020CAE7A3
:100BC000D4F804900834B5E71B0205930323ADF86D
:100BD0001C308AE7236823F0004BB8F1000F45D1A1
:100BE00028B1029A002A5CD0BBF1000F74D0002B10
:100BF00000DA04340BF1010B04EB8B04C0E7B8F10D
:100C0000000F19D1B0B163682268991C4FEAD27203
:100C10003FF47CAF05F158010133049100F090805E
:100C2000201DFFF7C1FD04AB01462846AFF300804D
:100C300000285BD10834A3E70D213846D5F8209071
:100C4000FFF7C6FE8145F5D1AB6A9C42F2D1204642
:100C5000FFF7E2FC0F2102463846FFF7DFFE384679
:100C60002A460021FFF7DAFE072050E70D2138461B
:100C7000D5F82090FFF7ACFE814501D02368B6E798
:100C8000AB6A9C42FAD104230022C5E90B23E31886
:100C9000C5F828B06B632368002B59DB012301934F
:100CA000A8E705F15803CDF80C8004F1040AB0461A
:100CB00091461E460EE050460496FFF775FD002251
:100CC000014604AB284609F101090AF1040AAFF311
:100CD0000080E0B9D945EED10D213846FFF778FE06
:100CE000049BAC62C5E90803062010E781460D218C
:100CF0003846FFF76DFEB9F1020F286225D12B4669
:100D0000049A43F82C2F6B62AC620620FFE646463D
:100D10002368DDF80C806AE72046FFF77DFC043489
:100D20000246AC6328461446AFF3008000283FF427
:100D3000EDAE384622460F21FFF770FE0720E6E6AB
:100D40000D213846FFF744FE2862049B6B62DBE707
:100D50000BF1010004EB80007AE700BF0000000007
:100D60000023A9E60123A7E60223A5E62DE9F04327
:100D70000646C3B015461C46042900F2BF80DFE8D2
:100D800001F09E57BD2D0300002C40F0B780102AC3
:100D900000F2B4800368D80600F1F98020AF38462D
:100DA00000F098F9B46B394600234FF0010C0CFAAF
:100DB00003F22A42204603F1010303D050F8042B2A
:100DC0000A600446042B01F10401F0D13846B463F3
:100DD00000F076F9002043B0BDE8F083032C40F02A
:100DE0008D8094B204EB1243102B4FEA124500F2AF
:100DF000858003681F0700F1D28020AF384600F0DD
:100E00003DF9B26B07EBC50154B10B46D01A01EBAB
:100E1000C401E4001D5843F8045B8B42FAD122441C
:100E20003846B26300F008F9002043B0BDE8F08313
:100E3000012C4FEA124895B25CD0052C5ED108EB2C
:100E40000509B9F1200F59D8B8F10F0F79D9A94682
:100E5000002D40F08A80B36B6DB320AF4FF00009D6
:100E600007EBC807043F03EBC50553F8041B47F81D
:100E7000041FAB42F9D1B9F1000F0FD06F464146C4
:100E8000102938BF102107EBC101843903EBC905D4
:100E900053F8040B41F8040FAB42F9D1012C00F0D8
:100EA0008680B8F10F0FB56347D9B9F1000F02D0B2
:100EB000684600F0B9F8002043B0BDE8F083ECB913
:100EC000806B23461FFA82FC0124371D04FA03F2CB
:100ED00012EA0C0F014604D051F8042B47F82320E6
:100EE00008460133102BF1D115F40055E3D1B0635E
:100EF000284604E008EB0503102B03D9022043B079
:100F0000BDE8F083B8F10F0FF8D83368DA0706D5DB
:100F1000304623F0030340F8483B00F079F820AF57
:100F2000384600F075F8B36B002D97D11D46043597
:100F3000B563384600F068F8BDE720A800F06CF80B
:100F4000B3E7B9F1100F40D9A9F110093368D907F7
:100F500008D523F00103304643F0020340F8483B34
:100F600000F05EF8B9F1000F32D033685A0720D490
:100F7000B8F10F0F25D96F463846C8F1100500F0BB
:100F800057F8002DB36B7FF77AAF20AF68E723F0F7
:100F90001003336006F5E87000F09CF8FEE623F0DD
:100FA0000803036000F5A87000F068F825E720AF9B
:100FB000BDE7304623F0040340F8D03B00F038F89A
:100FC000D6E720A800F02CF8D5E74FF00009BDE7E0
:100FD000B8F10F0F3FF63FAF20AF384600F020F8D2
:100FE000B36B002D7FF43AAF384600F015F862E796
:100FF00000F1340191E838009C46A6464CF8045DA7
:1010000090E8FF0FE54600BD90EC210B704700BF54
:1010100080EC210B704700BF90EC200B704700BFA5
:1010200080EC200B704700BFD0EC200B704700BF56
:10103000C0EC200B704700BFF0EC0201F0EC021195
:10104000F0EC0221F0EC0231F0EC0241F0EC025144
:10105000F0EC0261F0EC0271F0EC0281F0EC029134
:10106000F0EC02A1F0EC02B1F0EC02C1F0EC02D124
:10107000F0EC02E1F0EC02F1704700BFE0EC02019D
:10108000E0EC0211E0EC0221E0EC0231E0EC024184
:10109000E0EC0251E0EC0261E0EC0271E0EC028174
:1010A000E0EC0291E0EC02A1E0EC02B1E0EC02C164
:1010B000E0EC02D1E0EC02E1E0EC02F1704700BFAD
:1010C000B0FC0181B0FC0191B0FC01A1B0FC01B108
:1010D000704700BFA0FC0181A0FC0191A0FC01A110
:1010E000A0FC01B1704700BFEC4600B52DE90050EF
:1010F0002DE9FF1F4FF000032DE90C0001A9FFF7B8
:10110000E1FBDDF840E012B0704700BFEC4600B5EF
:101110002DE900502DE9FF1F4FF000032DE90C00D1
:1011200001A9FFF70BFCDDF840E012B0704700BFEB
:10113000EC4600B52DE900502DE9FF1F4FF00003EC
:101140002DE90C0001A9FFF71BFCDDF840E012B00F
:10115000704700BFEC4600B52DE900502DE9FF1F98
:101160004FF000032DE90C0001ABFFF7DFFBDDF8CA
:1011700040E012B0704700BFEC4600B52DE90050CA
:101180002DE9FF1F4FF000032DE90C0001AAFFF726
:1011900051FCDDF840E012B0704700BF027A034610
:1011A0007AB9427AA2B14168013A10B44272086831
:1011B00003220C1D1A7202025C60000E10BC1A6041
:1011C00070470068013A1A7202021A60000E7047F6
:1011D000B020704700B585B0002303AA00921946DD
:1011E0000C22FFF7DDFB039805B05DF804FB00BFA0
:1011F000F0E700BF2DE9F043054685B00E464FF0FD
:1012000000083046FFF7CAFFB028044600F0BA8055
:10121000070620D500F0F003802B4DD0902B36D060
:10122000A02B60D0B02B74D0C02B00F08B8000F0CE
:10123000F803D02B0BD100F007020132052342F452
:10124000002201212846FFF791FD0028D9D009206E
:1012500005B0BDE8F0838300DBB21F1D0DF10C0962
:1012600000231946CDF800900D222846FFF798FB81
:10127000039BCDF8009060064CBFDF1BFF180023D6
:101280000D22194628460397FFF7B0FBB9E700F097
:101290000D030D2BDBD003AF002300F00F02194626
:1012A00000972846FFF77CFB002300970D22194684
:1012B0002846FFF79BFBA4E73046FFF76FFF2402A9
:1012C0002043B0F5004FC2D004010023A2B219465A
:1012D0002846FFF74BFD0028B9D114F4004F18BF82
:1012E0004FF001088DE7C24302F007034FF47F621D
:1012F0001A41010702F47F624FF0000348BF42F435
:10130000804219462846FFF731FD00283FF479AFA7
:101310009DE7B1283BD0B22800F09380B32841D09C
:1013200000F0FC03B42B92D000F00702013201233D
:1013300042F4002219462846FFF718FD00283FF422
:1013400060AF84E7C6284AD0C72854D000F0F8031D
:10135000C02B63D0C82868D0C9287FF478AF304646
:10136000FFF71CFF020300F00F0002F470220130AF
:101370000243012105232846FFF7F8FC00283FF42B
:1013800040AF64E7B8F1000F18D0002060E73046A6
:10139000FFF704FF024600283FF459AF10F0F003B6
:1013A000C8D054E73046FFF7F9FE020300F00F0300
:1013B000013302F470221A430123BBE703AC434616
:1013C0000E22414600942846FFF7EAFA009443466D
:1013D0000F2241462846FFF709FB404638E73046D2
:1013E000FFF7DCFE020300F00F03013302F470226A
:1013F0001A4303239EE73046FFF7D0FE024600283B
:101400003FF425AF10F0F0037FF421AF042128460C
:10141000FFF7ACFC00283FF4F4AE18E700F00F0231
:101420000132032342F4202284E73046FFF7B6FE60
:1014300000F0F00200F00F031032013343EA0232F1
:1014400097E700230DF10C090D221946CDF8009005
:101450002846FFF7A5FA3046FFF7A0FE02064FF038
:1014600002040CD5039B00F07F00A04018440390B9
:101470003046FFF793FE030604F10704F2D4039B02
:10148000CDF8009000F07F02A24003F501731A44EA
:101490000023039219460D222846FFF7A7FAB0E66B
:1014A00010B5C26C536884B04FF0030C08321C02B4
:1014B00008461B0E01A9019402928DF80CC08DF80C
:1014C0000D30FFF797FE04B010BD00BF08B5FFF761
:1014D0008FFE806C08BD00BF08B5FFF789FEC06CA9
:1014E000C379023300EB830008BD00BF08B50620B6
:1014F00000F0A0F8012000F091FD00BF38B5D0F851
:10150000DC420CB1002038BD8021054600F052F9C4
:101510000246C5F8DC0230B1031F7C3243F8044FA9
:101520009342FBD1EEE74FF0FF3038BD1F29F8B5ED
:10153000054609D8D0F8DC620C4617464EB156F87D
:10154000240046F82470F8BD162303604FF0FF30E6
:10155000F8BD802100F02EF90646C5F8DC0240B146
:10156000031F00F17C05002143F8041F9D42FBD1BD
:10157000E5E74FF0FF30F8BD1F2938B5054621D803
:10158000D0F8DC220C466AB152F8213053B1012B5D
:1015900016D0591C10D00025204642F824509847F8
:1015A000284638BD284600F003F922460146284661
:1015B000BDE8384000F0E6B816230360012038BDCE
:1015C000002038BD162303604FF0FF3038BD00BF48
:1015D0001F292CD8D0F8DC2238B50C46054682B13C
:1015E00052F8243002EB84024BB1591C1AD0012B63
:1015F00016D00025204615609847284638BD0120A2
:1016000038BD802100F0D6F80246C5F8DC0258B19A
:10161000031F00217C3043F8041F9842FBD1DFE711
:10162000032038BD022038BD4FF0FF3038BD4FF0E9
:10163000FF30704738B5154B1F281D6820D8D5F8E6
:10164000DC22044662B152F820304BB1012B15D098
:10165000591C0FD0002542F820509847284638BD25
:10166000284600F0A5F8224601462846BDE8384045
:1016700000F088B816232B60012038BD002038BD4B
:1016800016232B604FF0FF3038BD00BF0000002054
:10169000134B1F2870B51E6809D80D46D6F8DC120A
:1016A000044649B151F8240041F8245070BD162376
:1016B00033604FF0FF3070BD8021304600F07AF883
:1016C0000146C6F8DC0240B1031F00F17C0C002289
:1016D00043F8042F6345FBD1E4E74FF0FF3070BDC2
:1016E0000000002038B50C4B1D68D5F8DC420CB169
:1016F000002038BD8021284600F05CF8C5F8DC02E7
:1017000038B1031F00F17C0243F8044F9342FBD130
:10171000EEE74FF0FF3038BD0000002038B5184B21
:101720001F281D6828D8D5F8DC22044682B152F85B
:10173000243002EB84024BB1591C1BD0012B17D073
:101740000025204615609847284638BD012038BD41
:101750008021284600F02EF80246C5F8DC0258B178
:10176000031F00217C3043F8041F8342FBD1DEE7D6
:10177000032038BD022038BD4FF0FF3038BD00BF18
:101780000000002070B50C46084D03460026204698
:1017900011461C462E6000F02BFC431C00D070BD8F
:1017A0002B68002BFBD0236070BD00BFA408002075
:1017B00000F016BC2DE9F04F01F10B06162E83B098
:1017C000044624D8102900F2BA8000F09DFA1026B1
:1017D00018220220B74F3A44A2F1080153688B4205
:1017E00000F0BA805A68D96822F003021A449D6852
:1017F000E9608D60516841F001012046516003F1BC
:10180000080500F083FA284603B0BDE8F08F36F0F3
:10181000070600F19480B14200F2918000F074FA62
:10182000B6F5FC7FC0F09681730A00F08F80042B20
:1018300000F26B81B30903F1390003F1380CC300E6
:101840009C4F3B44A3F108055B689D4206D10CE028
:10185000002980F22B81DB689D4206D05A6822F075
:101860000302911B0F29F3DD60463D69DFF848C292
:1018700065457CD06A6822F00302931B0F2B00F3AE
:101880007781002BC7E904CC80F26881B2F5007F34
:1018900080F01681D308796801334FEA521E012285
:1018A00002FA0EF20A4357F833E0C5F808E007EBF6
:1018B000C3010839E9607A6047F83350CEF80C501C
:1018C000831001219940914257D8114206D120F04E
:1018D00003004900114200F10400FAD007EBC009EF
:1018E0004D468646D5F80C80454508D119E1002BB8
:1018F00080F22081D8F80C80454500F01281D8F89C
:10190000042022F00302931B0F2BF0DD2046D8E9C0
:10191000025408EB060146F00106C8F80460EC60CA
:10192000A56043F00104C7E90411C1E902CC4C6091
:1019300048F8023000F0EAF908F1080502E00C234B
:1019400023600025284603B0BDE8F08F4FF40073F4
:1019500040204FF03F0C73E7D3689A4208BF023033
:101960007FF440AF3D69DFF850C1654582D17A68A8
:101970008310012199409142A7D9BD686B6823F07B
:101980000308464503D8A8EB06030F2B7EDCDFF8DF
:101990002C91D7F80824D9F800300132334405EBF4
:1019A000080A00F02F8103F580530F3323F47F6B77
:1019B0002BF00F0B5946204600F0AAF9411C0246B5
:1019C00000F0EF80824500F2EA80D9F80410594413
:1019D000C9F804100B4600F04B81D7F80814013108
:1019E0001BBFA2EB0A0A5344C7F80824C9F8043005
:1019F00012F0070300F01281C3F108010A44C3F595
:101A0000805193440831A1EB0B01C1F30B0A5146FD
:101A100020460192009300F07BF9421CDDE9003280
:101A200000F04B81831A03EB0A0BD9F80400BA606B
:101A30004BF001030AEB0001BD425360C9F80410EA
:101A400000F02281B8F10F0F40F220816B68A8F1FD
:101A50000C0020F0070003F0010303436B604FF01C
:101A6000050C2B180F28C3E901CC00F22D81536817
:101A70001546D9F82C208A42D9F8302038BFC9F849
:101A80002C108A4238BFC9F830108CE0AA1943F0F4
:101A9000010346F001066E602046BA60536000F014
:101AA00035F90835284603B0BDE8F08FD9681A44E7
:101AB0009DE600BF3004002038040020700800209C
:101AC000B2F5206F4FEA522363D3142B00F2B88093
:101AD00003F15C01C9005B3307EB010E7958AEF1ED
:101AE000080E8E4500F091804B6823F0030393426B
:101AF00002D989688E45F7D1D1F80CE07A68C5E93A
:101B0000021ECEF80850CD60DAE6142B59D9542BBA
:101B100000F29E80330B03F16F0003F16E0CC300E3
:101B20008EE60EF1010E1EF0030F05F108057FF49D
:101B3000D9AE51E0424445465368D8F80C1043F002
:101B40000103536055F8083F2046D9608B6000F0D0
:101B5000DDF8F7E6F00806F108023BE62A442046E5
:101B6000536843F001035360083500F0CFF8E9E60D
:101B7000A919204646F0010643F001046E60C7E94A
:101B80000411C1E902CC4C60AB5000F0BFF808353D
:101B9000D8E6930903F13901C90038339CE7BD4207
:101BA00060D0BD686B6823F0030B5E45ABEB0603AA
:101BB00002D80F2B3FF76AAF204600F0A7F80025A8
:101BC000C0E603F15C0003F15B0CC30038E659F892
:101BD00008394B4540F0968010F0030F00F1FF30BC
:101BE000F5D17B6823EA01037B60490099423FF607
:101BF000C4AE19B9C1E649000EF1040E1942FAD07B
:101C000070466BE603F1100BD4E69A104FF0010812
:101C10007B6808FA02F21A437A6070E702EB0B0164
:101C20004942C1F30B0A514620460193009200F04D
:101C30006FF8431CDDE900237FF4F4AE9A46F4E626
:101C4000542B26D8130B03F16F01C9006E3343E701
:101C5000B3F5AA7F26D8F30B03F1780003F1770CD4
:101C6000C300EDE5D9F804305B44C9F80430B4E6AC
:101C7000CAF30B0000287FF4B0AEBD6808EB0B037D
:101C800043F001036B60F4E61546F2E6012353606E
:101C900092E7B3F5AA7F21D8D30B03F17801C900ED
:101CA000773319E740F25452934221D8B30C03F131
:101CB0007D0003F17C0CC300C2E5083B9B44ABEB09
:101CC000020B4FF0000AB0E605F10801204600F0D3
:101CD00081F8BD68D9F804106B68CAE640F2545127
:101CE0008B420BD8930C03F17D01C9007C33F3E6E2
:101CF0004FF47E737F204FF07E0CA1E54FF47E7190
:101D00007E23E9E67B6870E7704700BF704700BF3D
:101D100038B5074D0022044608462A6000F070F9E5
:101D2000431C00D038BD2B68002BFBD0236038BD8E
:101D3000A4080020F8B5244F0C460646FFF7E4FF40
:101D4000BA685568C4F57E630F3325F003052B444C
:101D500023F47F6323F00F03A3F58054B4F5805F71
:101D600007DB00213046FFF7D3FFBB682B449842C6
:101D700004D03046FFF7CAFF0020F8BD614230466C
:101D8000FFF7C6FF01300DD0104ABB682D1B45F090
:101D900001055D60136830461B1B1360FFF7B6FF3B
:101DA0000120F8BD00213046FFF7B2FFBA68831A60
:101DB0000F2BDEDD43F001035360054B03491B6825
:101DC000C01A0860D5E700BF300400207408002066
:101DD00038080020002961D0F8B50C460646FFF708
:101DE00093FF54F8042C7B4FA4F1080522F0010165
:101DF00005EB010CB868DCF80430604523F0030300
:101E000000F08B80D207CCF8043032D454F8082C80
:101E1000AD1A1144AA6807F1080082426AD00CEB9F
:101E20000304D4F804E0EC68D4601EF0010FA26053
:101E300000F0978041F001036B60CCF80010B1F521
:101E4000007F35D27A68CB084809012101338140EF
:101E50001143796007EBC30257F83310083AC5E91C
:101E6000021247F83350CD603046BDE8F840FFF726
:101E70004DBF0CEB03025268D00710D4194407F190
:101E80000800DCF80830834273D0DCF80C20DA60FC
:101E9000936041F001036B606950D0E7704741F0F7
:101EA0000103B1F5007F44F8043CCCF80010C9D31D
:101EB000B1F5206F4FEA512348D28B0903F1390065
:101EC00003F13802C300F818FB580838984259D07B
:101ED0005A6822F003028A4202D99B689842F7D1DD
:101EE000D868C5E902308560DD603046BDE8F8405D
:101EF000FFF70CBF0CEB03025268D20763D40B440C
:101F0000DCE90212CA60916043F001026A60304667
:101F1000EB50BDE8F840FFF7F9BE0B44D10707D4FA
:101F200054F8082CAD1A1344D5E90212CA60916026
:101F300043F001026A60284ABD6012689A4293D851
:101F4000264B30461968FFF7F5FE8DE7142B0AD9AA
:101F5000542B1FD80B0B03F16F0003F16E02C3006B
:101F6000B1E719448DE703F15C0003F15B02C300A4
:101F7000A9E741F00103C7E90455C5E902006B6018
:101F8000695071E779689210012404FA02F20A4359
:101F90007A60A6E7B3F5AA7F06D8CB0B03F17800E9
:101FA00003F17702C3008EE740F25452934206D801
:101FB0008B0C03F17D0003F17C02C30083E74FF437
:101FC0007E737E227FE741F001036B60CCF8001046
:101FD0004AE700BF300400203C08002070080020C1
:101FE000024B58221A604FF0FF307047A4080020BF
:101FF000024B58221A604FF0FF307047A4080020AF
:10200000044A05491368002B08BF0B4618441060AA
:1020100018467047A8080020D0540020FEE700BFF3
:10202000FEE7FEE7FEE7FEE7FEE7704708B5024879
:1020300001F024F808BD00BFAC08002000B583B053
:102040000A4BD3F8F42042F00202C3F8F420D3F88C
:10205000F43003F002030193019B00220F216FF083
:10206000010000F05FF803B05DF804FB0044025883
:102070000F2801D90120704710B58AB0044600220C
:102080000146192000F04EF8192000F081F8174B96
:102090001C60174BD3F8F02042F00102C3F8F02087
:1020A000D3F8F03003F001030093009B01A902A8CC
:1020B00000F0EAFD00F0D6FD43000E48A0FB03232C
:1020C0009B0C013B0C480D4A026040F2E732C260B3
:1020D000436000230361836001F02EF910B10120F9
:1020E0000AB010BD044800F075FFF9E7440800206D
:1020F0000044025883DE1B43AC080020000001406E
:102100000649CB6823F4E0631B041B0C000200F4B7
:10211000E0600343024A1A43CA60704700ED00E0E2
:102120000000FA0500B5174BDB68C3F30223C3F1C7
:10213000070CBCF1040F28BF4FF0040C03F1040E90
:10214000BEF1060F14D9033B4FF0FF3E0EFA0CFC14
:1021500021EA0C0199400EFA03F322EA0303194322
:10216000002807DB0901C9B2074B19545DF804FBCD
:102170000023E9E700F00F000901C9B2034B19542D
:10218000F4E700BF00ED00E000E400E014ED00E043
:10219000002807DB00F01F02400901239340024A98
:1021A00042F82030704700BF00E100E0002800F056
:1021B000D78238B50446036813F0010F25D0A04A32
:1021C000136903F03803926A102B15D0182B0FD027
:1021D0006368B3F5803F3FD0002B53D1984B1A680A
:1021E00022F480321A601A6822F480221A6038E0E1
:1021F00002F00302022AEBD1914B1B6813F4003F5B
:1022000003D06368002B00F0AD82236813F0020F47
:1022100000F088808A4A1369926A13F038035AD012
:10222000182B55D0E368002B00F0A98084490A6878
:1022300022F0190213430B6000F0C4FE0546804BE8
:102240001B6813F0040F40F0918000F0BBFE401BB0
:102250000228F4D903208CE2794A136843F48033CE
:10226000136063682BB300F0ADFE0546744B1B682A
:1022700013F4003FC9D100F0A5FE401B6428F5D936
:10228000032076E2B3F5A02F09D06D4B1A6822F433
:1022900080321A601A6822F480221A60E1E7684BE3
:1022A0001A6842F480221A601A6842F480321A6076
:1022B000D7E700F087FE0546614B1B6813F4003F2B
:1022C000A3D000F07FFE401B6428F5D9032050E224
:1022D00012F0030FA6D15A4B1B6813F0040F03D062
:1022E000E368002B00F04082554A136823F019037D
:1022F000E1680B43136000F065FE0546504B1B6818
:1023000013F0040F06D100F05DFE401B0228F5D942
:1023100003202EE24A4A536823F0FE43216943EA30
:1023200001635360236813F0100F51D0444A1369BE
:1023300003F03803926A082B39D0182B33D0E369A5
:10234000002B69D03E4A136843F08003136000F00D
:1023500039FE05463A4B1B6813F4807F53D100F0D9
:1023600031FE401B0228F5D9032002E2344A5368AB
:1023700023F0FE43216943EA01635360D2E7304A08
:10238000136823F00103136000F01CFE05462C4B7C
:102390001B6813F0040FC5D000F014FE401B022888
:1023A000F5D90320E5E102F00302012AC7D1244B4D
:1023B0001B6813F4807F03D0E369802B40F0D68143
:1023C0001F4AD36823F07C53216A43EA0163D36038
:1023D000236813F0080F49D06369002B32D0184AE4
:1023E000536F43F00103536700F0ECFD0546144BB7
:1023F0005B6F13F0020F39D100F0E4FD401B02289F
:10240000F5D90320B5E10E4AD36823F07C53216A45
:1024100043EA0163D360DBE7094A136823F08003D2
:10242000136000F0CFFD0546054B1B6813F4807F59
:10243000CED000F0C7FD401B0228F5D9032098E15B
:10244000004402589D4A536F23F00103536700F084
:10245000B9FD0546994B5B6F13F0020F06D000F0F3
:10246000B1FD401B0228F5D9032082E1236813F057
:10247000200F29D0A3699BB1904A136843F480537D
:10248000136000F09FFD05468C4B1B6813F4005F42
:102490001AD100F097FD401B0228F5D9032068E10E
:1024A000864A136823F48053136000F08BFD0546C1
:1024B000824B1B6813F4005F06D000F083FD401BC5
:1024C0000228F5D9032054E1236813F0040F21D129
:1024D000636A002B00F04C81784A126902F03802DE
:1024E000182A00F0F380022B75D0744A136823F089
:1024F0008073136000F066FD0446704B1B6813F098
:10250000007F00F0D88000F05DFD001B0228F4D9A8
:1025100003202EE16A4A136843F48073136000F0CD
:1025200051FD0546664B1B6813F4807F06D100F011
:1025300049FD401B6428F5D903201AE1A368012B4B
:102540000AD00BBB5D4B1A6F22F001021A671A6F9B
:1025500022F004021A6704E0584A136F43F00103A3
:102560001367A36833B300F02DFD0546534B1B6F73
:1025700013F0020FACD100F025FD401B41F288336F
:102580009842F3D90320F4E0052B09D04B4B1A6F86
:1025900022F001021A671A6F22F004021A67E0E7BC
:1025A000464B1A6F42F004021A671A6F42F001029A
:1025B0001A67D6E700F006FD0546404B1B6F13F087
:1025C000020F85D000F0FEFC401B41F28833984298
:1025D000F3D90320CDE0394A136823F080731360E8
:1025E00000F0F0FC0546354B1B6813F0007F06D069
:1025F00000F0E8FC401B0228F5D90320B9E02F4B7E
:10260000996A304A0A40A16AE06A41EA00110A4325
:102610009A62226B013AC2F30802616B01394902E6
:1026200089B20A43A16B0139090401F4FE010A438E
:10263000E16B0139090601F0FE410A431A63DA6AC7
:1026400022F00102DA62596B1F4A0A40A16C42EA89
:10265000C1025A63DA6A22F00C02216C0A43DA6280
:10266000DA6A22F00202616C0A43DA62DA6A42F440
:102670008032DA62DA6A42F40032DA62DA6A42F40A
:102680008022DA62DA6A42F00102DA621A6842F003
:1026900080721A6000F096FC0446084B1B6813F029
:1026A000007F06D100F08EFC001B0228F5D9032024
:1026B0005FE000205DE000205BE000BF00440258C6
:1026C000004802580CFCFFFF0700FFFF30498A6AF0
:1026D000086B012B4ED002F00303A16A8B424BD151
:1026E000C2F30512E36A9A4248D1C0F30802236B91
:1026F000013B9A4244D1C0F34622636B013B9A42AC
:1027000040D1C0F30642A36B013B9A423CD1C0F3D7
:102710000660E36B013B984238D11D4B5B6BC3F302
:10272000CC03A26C9A4201D1002022E0184AD36A5D
:1027300023F00103D36200F045FC054600F042FCA3
:10274000A842FBD0124A516B124B0B40A16C43EADA
:10275000C1035363D36A43F00103D362002008E04E
:1027600001207047012004E0012002E0012000E088
:10277000002038BD0120FCE70120FAE70120F8E73E
:102780000120F6E70120F4E70120F2E70120F0E75D
:10279000004402580700FFFF744B1B6903F0380325
:1027A000102B00F0DE80182B10D00BB17048704752
:1027B0006E4B1B6813F0200F00F0D5806B4B186830
:1027C000C0F3C1006B4B23FA00F0704710B4674AA6
:1027D000916A01F00301946AC4F30510D36A03F00F
:1027E000010C536BC3F3CC030CFB03F307EE903ADD
:1027F000F8EE677A14F47C7F00F09380012965D0AD
:10280000022900F09180E1B107EE100AF8EE476A64
:102810009FED596A86EE267A544B1B6BC3F308036F
:1028200006EE903AF8EE666A9FED546A67EE867A95
:1028300076EEA77AF7EE006A77EEA67A27EE277A89
:1028400060E0136813F0200F23D011461268C2F322
:10285000C102484BD34007EE103AF8EE476A07EE44
:10286000100AB8EE476A86EE867A0B6BC3F308034C
:1028700006EE903AF8EE666A9FED406A67EE867A59
:1028800076EEA77AF7EE006A77EEA67A27EE277A39
:1028900038E007EE100AF8EE476A9FED396A86EED7
:1028A000267A324B1B6BC3F3080306EE903AF8EE20
:1028B000666A9FED326A67EE867A76EEA77AF7EE61
:1028C000006A77EEA67A27EE277A1BE007EE100A59
:1028D000F8EE476A9FED286A86EE267A234B1B6B3B
:1028E000C3F3080306EE903AF8EE666A9FED236A9A
:1028F00067EE867A76EEA77AF7EE006A77EEA67A2A
:1029000027EE277A194B1B6BC3F34623013307EEDF
:10291000903AF8EE677AC7EE276AFCEEE67A17EE91
:10292000900A5DF8044B704707EE100AF8EE476A0C
:102930009FED146A86EE267A0C4B1B6BC3F30803DB
:1029400006EE903AF8EE666A9FED0C6A67EE867ABC
:1029500076EEA77AF7EE006A77EEA67A27EE277A68
:10296000D0E7094870470348704700BF0044025849
:1029700000093D000090D0030024744A0000003993
:102980000024744C20BCBE4B40787D01002800F030
:10299000328170B50D4604469B4B1B6803F00F0354
:1029A0008B420BD2984A136823F00F030B4313603A
:1029B000136803F00F038B4240F01F81236813F06C
:1029C000040F0CD02269914B9B6903F070039A426B
:1029D00005D98E498B6923F070031A438A612368F5
:1029E00013F0080F0CD06269884BDB6903F07003A9
:1029F0009A4205D98549CB6923F070031A43CA610D
:102A0000236813F0100F0CD0A269804BDB6903F42C
:102A1000E0639A4205D97D49CB6923F4E0631A4308
:102A2000CA61236813F0200F0CD0E269774B1B6A50
:102A300003F070039A4205D974490B6A23F07003BE
:102A40001A430A62236813F0020F0CD0E2686F4B3E
:102A50009B6903F00F039A4205D96C498B6923F0F7
:102A60000F031A438A61236813F0010F41D0674AAC
:102A7000936923F47063A1680B4393616368022B2D
:102A80000AD0032B27D0012B2CD0604A126812F0F9
:102A9000040F06D10120ADE0126812F4003F00F0EF
:102AA000AE805A490A6922F0070213430B6100F015
:102AB00089FA0646554B1B6903F038036268B3EB8D
:102AC000C20F16D000F07EFA801B41F28833984284
:102AD000F0D903208EE04D4A126812F0007FE0D159
:102AE000012087E0494A126812F4807FD9D1012081
:102AF00080E0236813F0020F0CD0E268434B9B691F
:102B000003F00F039A4205D240498B6923F00F036B
:102B10001A438A613C4B1B6803F00F03AB420AD98E
:102B2000394A136823F00F032B431360136803F033
:102B30000F03AB4265D1236813F0040F0CD0226958
:102B4000324B9B6903F070039A4205D22F498B697F
:102B500023F070031A438A61236813F0080F0CD026
:102B600062692A4BDB6903F070039A4205D2274958
:102B7000CB6923F070031A43CA61236813F0100F66
:102B80000CD0A269214BDB6903F4E0639A4205D2C1
:102B90001E49CB6923F4E0631A43CA61236813F02A
:102BA000200F0CD0E269194B1B6A03F070039A42A4
:102BB00005D216490B6A23F070031A430A62FFF725
:102BC000EBFD12498B69C3F30323114AD35C03F075
:102BD0001F03D8408B6903F00F03D35C03F01F037E
:102BE00020FA03F30B4A13600B4B18600B4B186869
:102BF000FFF73EFA70BD012070470120FAE701207F
:102C0000F8E70120F6E700BF002000520044025818
:102C10006C5300084C08002048080020440800209D
:102C200008B5FFF7B9FD0B4A9369C3F303230A49BB
:102C3000CB5C03F01F0320FA03F3926902F00F024A
:102C4000885C00F01F0023FA00F0044A1060044A78
:102C5000136008BD004402586C5300084C08002063
:102C60004808002008B5FFF7DBFF054BDB69C3F31D
:102C70000223044AD35C03F01F03D84008BD00BF01
:102C8000004402586C5300083F230360114B1A693B
:102C900002F0070242609A6902F4706282609A69E7
:102CA00002F00F02C2609A6902F070020261DA69F2
:102CB00002F070024261DA6902F4E06282611B6A2A
:102CC00003F07003C361044B1B6803F00F030B6038
:102CD000704700BF0044025800200052F0B583B096
:102CE00000236BE085685E000324B44025EA0405F8
:102CF000CC68B4402C438460446824EA0C0C4C68D3
:102D0000C4F300149C4044EA0C04446068E0DD080D
:102D1000083550F8256003F007044FEA840C0F24AF
:102D200004FA0CF426EA040E0C6904FA0CF444EAE2
:102D30000E0440F825406BE0092400E0002404FA6A
:102D40000EF42C430CF1020C664D45F82C404FF06C
:102D5000B0442568D44325EA02064F6817F4801F63
:102D600001D042EA05064FF0B0452E606D6804EAD6
:102D700005064F6817F4001F01D042EA05064FF020
:102D8000B0456E60D5F8845004EA05064F6817F424
:102D9000003F01D042EA05064FF0B045C5F8846017
:102DA000D5F880502C404E6816F4803F01D042EA9E
:102DB00005044FF0B042C2F8804001330A6832FA8D
:102DC00003F400F08C804FF0010C0CFA03FC1CEAB9
:102DD0000202F2D04C6804F00304013C012C81D9BA
:102DE0004C6804F00304032C0CD0C4685D004FF061
:102DF000030C0CFA05FC24EA0C0C8C68AC4044EA89
:102E00000C04C4604C6804F00304022C3FF47FAF50
:102E100004684FEA430E4FF0030C0CFA0EFC24EA50
:102E20000C0C4C6804F0030404FA0EF444EA0C049D
:102E300004604C6814F4403FBFD02B4CD4F8F450DD
:102E400045F00205C4F8F450D4F8F44004F002044C
:102E50000194019C4FEA930C0CF10205214C54F8AB
:102E6000255003F003044FEA840E0F2404FA0EF4F5
:102E700025EA04051D4CA0423FF460AF04F58064D0
:102E8000A0421ED004F58064A0421CD004F58064EA
:102E9000A0421AD004F58064A04218D004F58064E2
:102EA000A04216D004F58064A04214D004F58064DA
:102EB000A04212D004F50064A0423FF43DAF0A24C2
:102EC0003DE701243BE7022439E7032437E70424E4
:102ED00035E7052433E7062431E707242FE703B05D
:102EE000F0BD00BF00040058004402580000025822
:102EF0000AB181617047090481617047134BDB6837
:102F000013F0040F07D1114BDB6803F00703834272
:102F10001AD00120704710B50C4AD36823F007037C
:102F20001843D06000F04EF80446084B5B6813F479
:102F3000005F07D100F046F8001BB0F57A7FF4D9A6
:102F4000012000E0002010BD00207047004802581A
:102F500010B50320FFF7D4F8FFF71EFC0F498B696B
:102F6000C3F303230E4AD35C03F01F03D8408B69DD
:102F700003F00F03D35C03F01F0320FA03F3094AA5
:102F80001360094B18600F20FFF772F810B101248D
:102F9000204610BD0446FFF751F8F9E700440258F7
:102FA0006C5300084C08002048080020034B1B7895
:102FB000034A11680B441360704700BF40080020AB
:102FC000F8080020014B1868704700BFF80800207F
:102FD0007047000090F83D30DBB2012B42D1022354
:102FE00080F83D300268D36843F00103D360036882
:102FF0001E4AB3F1804F18BF934225D0A2F57C4200
:10300000934221D002F5806293421DD002F5806286
:10301000934219D002F57842934215D0A2F56C4242
:10302000934211D002F5943293420DD0A2F5C042E2
:10303000934209D002F58062934205D01A6842F0AB
:1030400001021A60002070479968094A0A40062A5E
:1030500018BFB2F5803F07D01A6842F001021A602B
:103060000020704701207047002070470000014099
:1030700007000100704770477047704710B504465D
:1030800003681A6912F0020F11D0DA6812F0020F09
:103090000DD06FF002021A610123037703689B6968
:1030A00013F0030F79D0FFF7E6FF0023237723689F
:1030B0001A6912F0040F12D0DA6812F0040F0ED061
:1030C0006FF004021A610223237723689B6913F4CB
:1030D000407F68D02046FFF7CEFF00232377236888
:1030E0001A6912F0080F12D0DA6812F0080F0ED029
:1030F0006FF008021A61042323772368DB6913F059
:10310000030F57D02046FFF7B6FF0023237723682D
:103110001A6912F0100F12D0DA6812F0100F0ED0E8
:103120006FF010021A61082323772368DB6913F418
:10313000407F46D02046FFF79EFF00232377236879
:103140001A6912F0010F03D0DA6812F0010F3FD1B3
:1031500023681A6912F0800F03D0DA6812F0800F2A
:103160003DD123681A6912F4807F03D0DA6812F027
:10317000800F3BD123681A6912F0400F03D0DA6840
:1031800012F0400F39D123681A6912F0200F03D0D2
:10319000DA6812F0200F37D110BDFFF76BFF204621
:1031A000FFF76AFF81E72046FFF764FF2046FFF73D
:1031B00063FF92E72046FFF75DFF2046FFF75CFFC5
:1031C000A3E72046FFF756FF2046FFF755FFB4E779
:1031D0006FF001021A61204602F008F8B8E76FF0BC
:1031E00080021A61204600F0D8F8BAE76FF48072C6
:1031F0001A61204600F0D2F8BCE76FF040021A6175
:103200002046FFF73AFFBEE76FF020021A61204622
:1032100000F0C2F8C0E7000030B503683E4A9042B3
:1032200014BF4FF0000E4FF0010EB0F1804F14BFED
:1032300072464EF00102AAB9384CA04214BF0024D5
:103240000124374DA8420DD064B904F1804404F53F
:103250008234A04214BF0024012405F50065A84271
:1032600000D01CB123F070034C68234362BB2B4A8F
:10327000904214BF00220122294CA04224D01ABB44
:1032800002F1804202F58232904214BF00220122F4
:1032900004F50064A04217D0B2B9224A904214BF8C
:1032A0000022012204F59A34A0420DD062B91E4AD0
:1032B000904214BF0022012204F50064A04203D012
:1032C00012B91A4A904204D123F4407CCB6843EAF5
:1032D0000C0323F080034A69134303608A68C262C7
:1032E0000A688262124A904214BF73464EF001038C
:1032F00063B90C4B984214BF0023012302F57052AE
:10330000904203D013B90B4B984201D10B69036370
:103310000123436130BD00BF0000014000080040B0
:10332000000400400044014000E0004000E4004090
:10333000000401400048014060B310B5044690F815
:103340003D3013B3022384F83D30214651F8040B7D
:10335000FFF762FF012384F8483084F83E3084F898
:103360003F3084F8403084F8413084F8423084F8AB
:10337000433084F8443084F8453084F8463084F88B
:10338000473084F83D30002010BD80F83C30FFF716
:103390001FFED7E701207047704770477047000055
:1033A000224AD2F8883043F47003C2F88830204BA8
:1033B0001B6803F00F03062B06D81D4A136823F081
:1033C0000F0343F0070313601A4B1A6842F001021F
:1033D0001A6000221A611968174A0A401A60144BD1
:1033E0001B6813F0080F06D0114A136823F00F036F
:1033F00043F0070313600F4B00229A61DA611A62EF
:103400000E4999620E49D9620E4919635A6399634C
:10341000DA6319645A64196821F4802119601A6604
:10342000094B43F2D2021A60704700BF00ED00E082
:1034300000200052004402587FEDF6EA000202022A
:103440000000FF01800201010040005200F108036A
:1034500043604FF0FF328260C3600361002303606A
:10346000704700230361704743684B609A688A6025
:10347000516099600861036801330360704730B49C
:103480000D68B5F1FF3F11D000F108031C465B68E1
:103490001A68AA42FAD963684B6099608C606160CF
:1034A000086103680133036030BC70470469F2E7C8
:1034B0000369416882688A60416851605A68824243
:1034C00006D0002202611A68013A1A601868704733
:1034D00082685A60F5E710B5044601F0CBFCA26B98
:1034E000E36B9A4204D0002401F0E6FC204610BDB4
:1034F0000124F9E710B5044601F0BCFCA36B23B925
:10350000012401F0D9FC204610BD0024F9E770B574
:1035100004461546866B026C5AB903681BB100203D
:103520000136A66370BD806800F0E2FF0023A3604F
:10353000F6E76DB94068FCF74FFF226C63681344EF
:103540006360A268934219D3236863602846E7E763
:10355000C068FCF741FF226C5142E3689B1AE360AC
:103560002268934202D2A3680B44E360022D01D08B
:103570000020D5E726B1013E0020D1E72846CFE75D
:103580000020CDE70346026C6AB110B50846D96841
:103590001144D9609C68A14201D31968D960D968E7
:1035A000FCF71AFF10BD704738B5054601F062FC04
:1035B00095F8454064B201E0013C64B2002C0ADD9C
:1035C0006B6A43B105F1240000F0E8FE0028F3D057
:1035D00000F078FFF0E7FF2385F8453001F06CFC40
:1035E00001F048FC95F8444064B201E0013C64B24B
:1035F000002C0ADD2B6943B105F1100000F0CEFE6E
:103600000028F3D000F05EFFF0E7FF2385F8443098
:1036100001F052FC38BD38B5E0B10D46044601F06A
:1036200029FC2368E26B216C01FB0230A0600020C2
:10363000A0636360013A02FB0133E360FF2384F877
:10364000443084F84530FDB9236963B901F034FC96
:10365000012038BD4FF0500383F31188BFF36F8F03
:10366000BFF34F8FFEE704F1100000F097FE002833
:10367000ECD04FF0E0234FF08052C3F8042DBFF39D
:103680004F8FBFF36F8FE1E704F11000FFF7DEFE0D
:1036900004F12400FFF7DAFED8E738B51D46049C94
:1036A0000B4649B92460E063236401212046FFF7FB
:1036B000B2FF84F84C5038BD2260F4E740B94FF0B7
:1036C000500383F31188BFF36F8FBFF34F8FFEE773
:1036D00010B584B01C4683B10B1E18BF0123002A0D
:1036E00008BF43F001038BB94FF0500383F31188F7
:1036F000BFF36F8FBFF34F8FFEE74FF0500383F39D
:103700001188BFF36F8FBFF34F8FFEE7B1FA81F3DC
:103710005B09002A18BF43F0010343B94FF050037F
:1037200083F31188BFF36F8FBFF34F8FFEE75023F2
:103730000393039B502B08D04FF0500383F3118861
:10374000BFF36F8FBFF34F8FFEE7039B012384F816
:10375000463000949DF81830FFF79FFF204604B0D4
:1037600010BDF0B585B0019288B10F461D460446E4
:10377000B1B1022D20D1E36B012B1DD04FF05003CE
:1037800083F31188BFF36F8FBFF34F8FFEE74FF0C6
:10379000500383F31188BFF36F8FBFF34F8FFEE7A2
:1037A000036C002BE5D04FF0500383F31188BFF377
:1037B0006F8FBFF34F8FFEE700F08AFE064658B9C1
:1037C000019B002B48D04FF0500383F31188BFF3C7
:1037D0006F8FBFF34F8FFEE700263DE02A46394644
:1037E0002046FFF794FE636A7BB948B14FF0E023AF
:1037F0004FF08052C3F8042DBFF34F8FBFF36F8F8C
:1038000001F05AFB012005B0F0BD04F1240000F0E6
:10381000C5FD0028F4D04FF0E0234FF08052C3F8EC
:10382000042DBFF34F8FBFF36F8FE9E701F044FB27
:103830000020E8E702A800F0F7FD012619E00023C8
:1038400084F8443021E0002384F8453023E020460A
:10385000FFF7AAFE00F082FC01F00CFBA26BE36B09
:103860009A42BBD3022DB9D0019B002BDED0002E93
:10387000E0D001F021FB00F0D7FB01F0FBFA94F857
:10388000442052B2B2F1FF3FD9D094F8452052B251
:10389000B2F1FF3FD7D001F00FFB01A902A800F061
:1038A000CFFDD8B92046FFF716FE0028CFD00199EA
:1038B00004F1100000F03EFD2046FFF775FE00F019
:1038C0004DFC0028C8D14FF0E0234FF08052C3F8E0
:1038D000042DBFF34F8FBFF36F8FBDE72046FFF777
:1038E00063FE00F03BFC00208DE72DE9F84390B12A
:1038F0000F4616461C460546B1B1022C20D1EB6B93
:10390000012B1DD04FF0500383F31188BFF36F8F4D
:10391000BFF34F8FFEE74FF0500383F31188BFF3DF
:103920006F8FBFF34F8FFEE7036C002BE5D04FF096
:10393000500383F31188BFF36F8FBFF34F8FFEE700
:1039400001F0BEFBEFF311894FF0500383F31188B0
:10395000BFF36F8FBFF34F8FAA6BEB6B9A4206D307
:10396000022C04D0002089F31188BDE8F88395F873
:1039700045804FFA88F8AB6B224639462846FFF758
:10398000C6FDB8F1FF3F06D008F101035BB285F830
:1039900045300120E7E76B6A0BB90120E3E705F149
:1039A000240000F0FBFC18B126B101203060DAE7FA
:1039B0000120D8E70120D6E7F0B585B0019290B19B
:1039C0000F460446C1B100F083FD064600BB019BD3
:1039D000002B5ED04FF0500383F31188BFF36F8F3D
:1039E000BFF34F8FFEE74FF0500383F31188BFF30F
:1039F0006F8FBFF34F8FFEE7036C002BE3D04FF0C8
:103A0000500383F31188BFF36F8FBFF34F8FFEE72F
:103A100000263EE039462046FFF7B4FD013DA56390
:103A2000236923B901F048FA012005B0F0BD04F183
:103A3000100000F0B3FC0028F4D04FF0E0234FF06A
:103A40008052C3F8042DBFF34F8FBFF36F8FE9E7A8
:103A500001F032FA0020E8E702A800F0E5FC0126B8
:103A600021E0002384F8443029E0002384F8453025
:103A70002BE02046FFF798FD00F070FB09E02046A0
:103A8000FFF792FD00F06AFB2046FFF733FD0028A8
:103A90003FD101F0EFF9A56B002DBBD1019B002BAD
:103AA000D6D0002ED8D001F007FA00F0BDFA01F010
:103AB000E1F994F844305BB2B3F1FF3FD1D094F810
:103AC00045305BB2B3F1FF3FCFD001F0F5F901A96A
:103AD00002A800F0B5FC0028D1D12046FFF70AFD6E
:103AE0000028C6D0019904F1240000F023FC2046F0
:103AF000FFF75AFD00F032FB0028CAD14FF0E02357
:103B00004FF08052C3F8042DBFF34F8FBFF36F8F78
:103B1000BFE7002089E700000023072B0CD8074AE5
:103B200052F833200AB10133F7E7044A42F8331060
:103B300002EBC30358607047704700BFFC080020C9
:103B400070B504460D46164601F094F994F84430D9
:103B50005BB2B3F1FF3F0DD094F845305BB2B3F1E7
:103B6000FF3F0BD001F0A8F9A36B5BB12046FFF734
:103B70001BFD70BD002384F84430EDE7002384F87A
:103B80004530EFE73246294604F1240000F0EAFB15
:103B9000ECE70000084B1B681B6823B9074B4FF08C
:103BA000FF321A607047044B1B68DB68DB685A6899
:103BB000024B1A60704700BF40090020E80D00204A
:103BC0002DE9F04780460D4617469946089EDDF8D8
:103BD00024A00A9C9200A521206BFCF797FC236B84
:103BE0006FF040423A4403EB820727F00707B5B372
:103BF0004FF0000CBCF10F0F0BD815F80C2004EBA4
:103C00000C0383F8342015F80C3013B10CF1010CBF
:103C1000F0E7002384F84330372E00D93726E662D8
:103C2000E66400252565201DFFF71BFC04F1180044
:103C3000FFF717FC2461C6F13806A661646265656A
:103C400084F858504A464146384601F0E5F820606D
:103C5000BAF1000F01D0CAF80040BDE8F087002398
:103C600084F83430D8E7000038B5002407E004EBCE
:103C7000840293000E481844FFF7E8FB0134372C08
:103C8000F5D90C4D2846FFF7E1FB0B4C2046FFF71A
:103C9000DDFB0A48FFF7DAFB0948FFF7D7FB0948C5
:103CA000FFF7D4FB084B1D60084B1C6038BD00BFFC
:103CB00048090020BC0D0020D00D0020F40D00208C
:103CC000200E00200C0E0020400900204409002096
:103CD00010B5044601F0CEF8224A13680133136090
:103CE000214B1B685BB1214B1B686BB91E4B1B68DA
:103CF000DA6AE36A9A4207D81B4B1C6004E01A4B4D
:103D00001C601368012B29D0194A13680133136012
:103D10006364E06A174B1B68984201D9154B186021
:103D200000EB8000211D144B03EB8000FFF79CFB90
:103D300001F0C2F80D4B1B687BB10B4B1B68DA6AB4
:103D4000E36A9A4209D24FF0E0234FF08052C3F861
:103D5000042DBFF34F8FBFF36F8F10BDFFF784FFAC
:103D6000D2E700BFA80D00203C090020080E00206B
:103D7000B40D0020B80D00204809002010B50446FD
:103D800090F8593063B1012B11D0022B0ED04FF0B7
:103D9000500383F31188BFF36F8FBFF34F8FFEE79C
:103DA000006B00F0BDFF204600F0BAFF10BD00F030
:103DB000B7FFFBE70F4B1B68D3B110B501F05AF802
:103DC0000D4BDB68DC68201DFFF772FB0B4A1368A4
:103DD000013B1360074A1368013B136001F06CF864
:103DE0002046FFF7CBFF034B1B68002BE6D110BD2D
:103DF000704700BFAC0D0020200E0020A80D002051
:103E000008B5FFF7D7FF074B1B68012BF9D94FF017
:103E1000E0234FF08052C3F8042DBFF34F8FBFF360
:103E20006F8FEEE74809002070B504460D46194B28
:103E30001E68194B18680430FFF73AFBB4F1FF3FD6
:103E400014BF00230123002D08BF00236BB93444A5
:103E5000114B1B685C60A6420ED9104B18680E4BC4
:103E600019680431FFF70BFB70BD0B4B1968043167
:103E70000B48FFF7F9FAF7E70A4B1868064B196881
:103E80000431FFF7FCFA084B1B68A342ECD9064B40
:103E90001C60E9E7340E00203C09002044090020A2
:103EA0000C0E002040090020E80D002030B587B03E
:103EB0000B9C7CB10C9DB5B15C250495049D5C2DDB
:103EC0001AD04FF0500383F31188BFF36F8FBFF305
:103ED0004F8FFEE74FF0500383F31188BFF36F8FCE
:103EE000BFF34F8FFEE74FF0500383F31188BFF30A
:103EF0006F8FBFF34F8FFEE7049D0C9D2C63022450
:103F000085F8594000240394029505AC01940A9C5D
:103F10000094FFF755FE0C98FFF7DAFE059807B0FE
:103F200030BD2DE9F04385B00746884614461E464D
:103F3000900000F077FE00B381465C2000F072FE36
:103F40000546B0B1C0F83090E5B1002385F859308E
:103F5000039302950D9B01930C9B009333462246DD
:103F600041463846FFF72CFE2846FFF7B1FE0120F8
:103F700005E0484600F0D4FEE6E74FF0FF3005B01C
:103F8000BDE8F0834FF0FF30F9E7000010B588B0CE
:103F900000240594069407AA06A905A800F0C6FD0A
:103FA000059B0293069B019300942346079A1849A8
:103FB0001848FFF77BFF184B186040B100F050FB2A
:103FC000012806D0B0F1FF3F18D008B010BD002086
:103FD000F6E74FF0500383F31188BFF36F8FBFF301
:103FE0004F8F0E4B4FF0FF321A600D4B01221A60BB
:103FF0000C4B00221A6000F0D7FFE6E74FF05003A9
:1040000083F31188BFF36F8FBFF34F8FFEE700BFBD
:104010007C530008013E0008E40D0020E80D00205C
:10402000080E0020340E0020024A1368013313608A
:10403000704700BFB00D0020014B1868704700BFEB
:10404000340E0020F8B53A4B1B68002B69D1394B70
:104050001D6801351D60C5B9374B1B681B6843B12E
:104060004FF0500383F31188BFF36F8FBFF34F8F6F
:10407000FEE7314A1168314B186810601960304A08
:10408000136801331360FFF785FD2E4B1B68AB42AD
:104090003DD900272C4B1B68DB6A03EB83039A0096
:1040A0002A4B9B58012B00D90127294B1B68002B59
:1040B0003CD001273AE001271F4B1B681B6843B324
:1040C0001D4B1B68DB68DC6863689D4226D3261D98
:1040D0003046FFF7EDF9A36A1BB104F11800FFF7B2
:1040E000E7F9E36A1B4A1268934201D9194A13603F
:1040F00003EB83039A00314614481044FFF7B4F9E8
:10410000E26A114B1B68DB6A9A42D4D2D4E70027DB
:10411000D2E70C4B4FF0FF321A60BBE7094A13603D
:10412000B8E70D4A13680133136000273846F8BD1D
:10413000B00D0020340E002040090020440900206A
:10414000EC0D0020E80D00203C090020480900206B
:10415000380E0020B80D0020F00D002038B5354B8A
:104160001B6843B94FF0500383F31188BFF36F8F7F
:10417000BFF34F8FFEE700F07DFE2E4B1A68013A29
:104180001A601B68002B4FD12B4B1B680BB9002406
:104190004BE00024294B1B681BB3284BDB68DC6811
:1041A00004F11800FFF784F9251D2846FFF780F970
:1041B000E06A234B1B68984201D9214B186000EB41
:1041C000800029461F4B03EB8000FFF74DF9E26AA0
:1041D0001D4B1B68DB6A9A42DCD31C4B01221A6020
:1041E000D8E70CB1FFF7D6FC194B1C6884B9174B04
:1041F0001C68D4B14FF0E0234FF08052C3F8042D77
:10420000BFF34F8FBFF36F8F01240EE0013C07D047
:10421000FFF718FF0028F9D00C4B01221A60F5E7D0
:104220000B4B00221A60E2E7002400F045FE204616
:1042300038BD00BFB00D0020A80D0020F40D0020F7
:10424000B80D0020480900203C090020380E00204D
:10425000F00D002010B5A8B10446104B1B6843B107
:104260004FF0500383F31188BFF36F8FBFF34F8F6D
:10427000FEE7FFF7D9FE00212046FFF7D5FDFFF747
:104280006DFF48B94FF0E0234FF08052C3F8042D82
:10429000BFF34F8FBFF36F8F10BD00BFB00D002075
:1042A0001F4B1B681BB11F4B01221A6070471D4B2F
:1042B00000221A601C4B1B6803EB83018A001B4918
:1042C0008A585AB90BB1013BF6E74FF0500383F31C
:1042D0001188BFF36F8FBFF34F8FFEE703EB8300AF
:1042E00082000A4450684068506003EB830C4FEA38
:1042F0008C020832114488420BD003EB83029100F8
:104300000A4A0A445268D168094A1160064A136091
:104310007047406862469100044A0A445060ECE7E6
:10432000B00D0020380E0020B80D002048090020F4
:104330003C09002058B110B50C46094A11681831E3
:10434000FFF79DF801212046FFF76EFD10BD4FF0ED
:10435000500383F31188BFF36F8FBFF34F8FFEE7D6
:104360003C09002038B570B10D4614460A4A116860
:104370001831FFF779F80CB14FF0FF352146284688
:10438000FFF752FD38BD4FF0500383F31188BFF3A0
:104390006F8FBFF34F8FFEE73C09002038B5C3682D
:1043A000DC6824B304F118052846FFF781F8184BA0
:1043B0001B682BBB251D2846FFF77AF8E06A154BD2
:1043C0001B68984201D9134B186000EB8000294606
:1043D000114B03EB8000FFF747F8E26A0F4B1B68B5
:1043E000DB6A9A4211D901200D4B186038BD4FF09D
:1043F000500383F31188BFF36F8FBFF34F8FFEE736
:1044000029460848FFF730F8E7E70020EEE700BF4D
:10441000B00D0020B80D0020480900203C09002004
:10442000380E0020F40D0020034B1B680360034B83
:104430001B684360704700BFEC0D0020340E002065
:10444000F8B5C8B10C460546F9B100F013FD1B4B99
:1044500019686B68C81A2268B2F1FF3F26D0184E5F
:1044600036682F68B74201D08B4224D9824215D8D2
:104470000023236001241AE04FF0500383F31188D6
:10448000BFF36F8FBFF34F8FFEE74FF0500383F3FF
:104490001188BFF36F8FBFF34F8FFEE75B1A134492
:1044A00023602846FFF7C0FF002400E0002400F04E
:1044B00003FD2046F8BD0124F9E700BF340E0020BB
:1044C000EC0D0020014B01221A607047380E0020CD
:1044D000054B1B6833B1054B1B680BB100207047BF
:1044E0000220704701207047080E0020B00D002008
:1044F00000283BD038B504461E4B1B68834208D0C9
:104500004FF0500383F31188BFF36F8FBFF34F8FCA
:10451000FEE7036D43B94FF0500383F31188BFF3F7
:104520006F8FBFF34F8FFEE7013B0365C16AC26C1B
:1045300091421DD00BB1002038BD051D2846FEF765
:10454000B7FFE06CE062C0F13803A3610A4B1B685F
:10455000984201D9084B186000EB80002946074BB0
:1045600003EB8000FEF780FF0120E5E700207047A5
:104570000020E1E73C090020B80D00204809002098
:10458000064B1A6813682BB90123036023B9D3685B
:10459000186870470023F8E7002070473C0E0020A1
:1045A00008B54160006191420CD8D21A83699A42E1
:1045B00001D3012008BD011D0B4B1868FEF75FFFFA
:1045C0000020F7E79A422CBF00220122994238BF0F
:1045D00000220AB10120EDE7011D044B1868FEF727
:1045E0004EFF0020E6E700BF400E00203C0E0020FA
:1045F00030B583B000F03EFC114B1B681BB100F0DE
:104600005BFC03B030BD0F4D2846FEF71FFF0E4C7C
:104610002046FEF71BFF0D4B1D600D4B1C60002359
:1046200000930C4B0C4A10210A20FFF747F8044B6B
:1046300018600028E3D00949FFF76EFADFE700BFF2
:10464000600F0020E40E0020F80E00203C0E002039
:10465000400E0020100F0020440E0020845300085C
:1046600010B588B0FFF7C4FF124B1B68CBB1002414
:104670000594069407AA06A905A800F063FA059B0D
:104680000293069B0193022300932346079A0A494B
:104690000A48FFF70BFC0A4B186010B1012008B064
:1046A00010BD4FF0500383F31188BFF36F8FBFF33A
:1046B0004F8FFEE7600F00208C530008C9490008A7
:1046C000640F0020B8B19C4603461848006858B3F0
:1046D00000B585B000910192029305291CDCFFF71B
:1046E000F7FE022810D000231A4669460F480068DA
:1046F000FFF737F815E04FF0500383F31188BFF34D
:104700006F8FBFF34F8FFEE70023069A6946074875
:104710000068FFF726F804E0002362466946FFF7C9
:10472000E4F805B05DF804FB00207047600F00203E
:1047300070B582B01B4B1B681A6862B3DB681E68D9
:10474000DC68251D2846FEF7B3FE236A20469847FD
:1047500094F8283013F0040FECD0A36933449E4240
:1047600007D26360246129460E4B1868FEF787FE66
:10477000E0E7002100910B4632462046FFF7A2FFFA
:104780000028D7D14FF0500383F31188BFF36F8F08
:10479000BFF34F8FFEE7044A1068024908601360B8
:1047A00002B070BD3C0E0020400E002038B505461A
:1047B000FFF742FC0446074B1B68834205D80023E1
:1047C0002B60044B1C60204638BDFFF7B1FF01236E
:1047D0002B60F6E70C0F002070B582B006460D4640
:1047E00017490968C968CC68201DFEF761FE94F876
:1047F00028C01CF0040F08D12CF0010C84F828C04C
:10480000236A2046984702B070BDA16933462A4604
:1048100031442046FFF7C4FE0028F1D0002100916A
:104820000B4632462046FFF74DFF0028E8D14FF0F7
:10483000500383F31188BFF36F8FBFF34F8FFEE7F1
:104840003C0E002070B582B006460C46FFF7ECFB2C
:1048500001A8FFF7ABFF019B3BBB0546B04228BF59
:10486000002C19D024B1134A12681268DAB9012455
:104870002246711B104B1868FFF762F9FFF76EFCB8
:10488000A8B94FF0E0234FF08052C3F8042DBFF3D6
:104890004F8FBFF36F8F0AE0FFF760FC2946304669
:1048A000FFF79AFF03E01C46E2E7FFF757FC02B070
:1048B00070BD00BF400E0020600F002010B588B012
:1048C00002E0049B002B0FDA002204A93D4B18687C
:1048D000FFF772F8002873D0049B002BF1DA0799D8
:1048E0000698059B9847ECE7069C636913B1201D69
:1048F000FEF7DEFD03A8FFF759FF049B092BE3D861
:10490000DFE803F00505053037500505303794F82A
:10491000283043F0010384F82830059BA169024642
:1049200019442046FFF73CFE0028CDD0236A2046DC
:10493000984794F8283013F0040FC5D0A2690021DD
:1049400000910B46059802442046FFF7BBFE002865
:10495000BAD14FF0500383F31188BFF36F8FBFF3C9
:104960004F8FFEE794F8283023F0010384F82830B5
:10497000AAE794F8283043F0010384F82830059919
:10498000A16131B10346024601442046FFF708FE0B
:104990009AE74FF0500383F31188BFF36F8FBFF393
:1049A0004F8FFEE794F8283013F0020F04D023F065
:1049B000010384F8283087E7204600F0B1F983E747
:1049C00008B010BD600F002000B583B001A8FFF74C
:1049D000D7FD0199FFF736FFFFF770FFF6E708B53F
:1049E0004FF0E0231B69FFF773FD012800D108BDDC
:1049F00000F0B0FAFBE70000EFF305832BB9064B9C
:104A0000186828B901221A6070476FF005007047D6
:104A10004FF0FF30704700BFC4110020EFF3058353
:104A200073B90A4B1B68012B0DD110B50024084B3C
:104A3000DC77064B02221A60FFF7A8FA204610BD69
:104A40006FF0050070474FF0FF307047C411002031
:104A500000ED00E0F0B587B000240594EFF3058485
:104A600074BB68B322B31568936903B918235C1E3D
:104A7000372C49D8546814F0010F47D156696EB1EC
:104A80004FEA960C94682CB1D7685B2F02D917694E
:104A900007B1C6B92CB14FF0FF340EE04FF0800CD7
:104AA000F0E7D4688CB9146994B14FF0FF3404E096
:104AB0001546002418234FF0800C012C0AD0ACB10D
:104AC000059807B0F0BD0124F7E74FF0FF34F4E795
:104AD0000024F2E7146992680292019400930B4655
:104AE00062462946FFF7E2F90590E9E705AA019237
:104AF00000930B461FFA8CF22946FFF712FA0128A1
:104B0000DED000230593DBE70020DAE70020D8E7BA
:104B100008B5EFF3058333B908B9002008BDFFF7E6
:104B200099FB0020FAE76FF00500F7E7034B0360FD
:104B3000034B0B6080231360704700BF6811002097
:104B4000680F0020034B0360034B0B604FF480732E
:104B500013607047C8150020C8110020124A12F0D7
:104B6000070F1ED0D11D21F00701C1F57A53134460
:104B70000A460E480260002141601344083B23F0BE
:104B800007030B48036059601960991A516013605C
:104B9000084B1960084B1960084B4FF000421A602F
:104BA00070474FF47A53E4E728160020BC540020E5
:104BB00024160020B0540020AC540020A85400203B
:104BC000164B1A461B688342FBD3516802EB010C5B
:104BD000844509D0416800EB010C634509D00360AE
:104BE000904219D0106070474068014451601046EF
:104BF000F0E710B40A4C2468A3420BD05B68194458
:104C0000416013681B680360904200D010605DF83B
:104C1000044B70470460F7E7704700BFBC540020A6
:104C20002416002070B50546FFF7FEF9364B1B68C9
:104C3000A3B1364B1B681D424ED135B1083515F076
:104C4000070F02D025F007050835002D46D0304B60
:104C50001B68AB4251D32F4A146804E0FFF77EFF74
:104C6000E7E722461C466368AB4202D22368002B6A
:104C7000F7D1254B1B68A34241D01668083623683C
:104C8000136063685B1B102B10D9601910F0070FBD
:104C900008D04FF0500383F31188BFF36F8FBFF339
:104CA0004F8FFEE743606560FFF78AFF626818492F
:104CB0000B689B1A0B60184909688B4201D2164990
:104CC0000B60124B1B681343636000232360134A7D
:104CD00013680133136002E0002600E00026FFF7AE
:104CE0003DFA16F0070F0CD04FF0500383F31188F4
:104CF000BFF36F8FBFF34F8FFEE70026EFE700266D
:104D0000EDE7304670BD00BF24160020A8540020F7
:104D1000AC540020BC540020B0540020B4540020F7
:104D2000002834D038B50446A0F1080550F8043CFA
:104D3000174A1268134208D14FF0500383F31188C9
:104D4000BFF36F8FBFF34F8FFEE750F8081C41B1E0
:104D50004FF0500383F31188BFF36F8FBFF34F8F72
:104D6000FEE723EA020340F8043CFFF75DF954F83C
:104D7000041C084A13680B4413602846FFF720FF01
:104D8000054A136801331360FFF7E8F938BD70472F
:104D9000A8540020AC540020B854002082B0002356
:104DA00001930D4B1B68B3F1FF3F08D04FF0500348
:104DB00083F31188BFF36F8FBFF34F8FFEE74FF080
:104DC000500383F31188BFF36F8FBFF34F8F019BA5
:104DD000002BFCD002B07047500800200848006843
:104DE000006880F308884FF0000080F3148862B6F2
:104DF00061B6BFF34F8FBFF36F8F00DF00BF0000BE
:104E000008ED00E0DFF80C00016841F4700101607A
:104E10007047000088ED00E04FF0807340F8043CDC
:104E200021F0010140F8081C054B40F80C3C40F80B
:104E3000202C6FF0020340F8243C4438704700BF38
:104E40009D4D000800000000000000000000000070
:104E5000074B19680868B0E8F04F80F30988BFF382
:104E60006F8F4FF0000080F311887047AFF3008020
:104E70003C0900204FF0500383F31188BFF36F8F7C
:104E8000BFF34F8F0B4A136801331360012B00D01F
:104E900070474FF0E023D3F8043D13F0FF0FF7D035
:104EA0004FF0500383F31188BFF36F8FBFF34F8F21
:104EB000FEE700BF50080020094B1B6843B94FF0C4
:104EC000500383F31188BFF36F8FBFF34F8FFEE75B
:104ED000013B034A13600BB983F31188704700BF8D
:104EE000500800200000000000000000000000004A
:104EF000EFF30980BFF36F8F154B1A681EF0100F88
:104F000008BF20ED108A20E9F04F10602DE909005C
:104F10004FF0500080F31188BFF34F8FBFF36F8FB6
:104F2000FFF7BEF94FF0000080F3118809BC196843
:104F30000868B0E8F04F1EF0100F08BFB0EC108A00
:104F400080F30988BFF36F8F704700BFAFF3008015
:104F50003C09002008B54FF0500383F31188BFF3DC
:104F60006F8FBFF34F8FFFF76DF828B14FF0E0233D
:104F70004FF08052C3F8042D002383F3118808BD3D
:104F80004FF0E022002313619361054B1B68054934
:104F9000A1FB03139B09013B536107231361704776
:104FA00048080020D34D62104FF0E023D3F8002DC5
:104FB0003D4B9A421CD04FF0E023D3F8002D3B4BE1
:104FC0009A421ED030B583B0394B1A78D2B20192D2
:104FD000FF221A701B78DBB28DF803309DF8033086
:104FE00003F05003334A1370334B07221A601BE05F
:104FF0004FF0500383F31188BFF36F8FBFF34F8FD0
:10500000FEE74FF0500383F31188BFF36F8FBFF3B8
:105010004F8FFEE7284A1368013B13609DF8033069
:105020005B00DBB28DF803309DF8033013F0800F86
:10503000F0D1214B1B68032B08D04FF0500383F3B2
:105040001188BFF36F8FBFF34F8FFEE71B021A4A21
:10505000136003F4E0631360019BDBB2144A137026
:105060004FF0E024D4F8203D43F47003C4F8203D11
:10507000D4F8203D43F07043C4F8203DFFF780FF93
:1050800000250E4B1D60FFF7BDFED4F8343F43F002
:105090004043C4F8343FFFF7A1FEFFF701F9FFF7E3
:1050A0007DFE284603B030BD71C20F4170C20F4172
:1050B00000E400E0C4540020C85400205008002040
:1050C000EFF305830F2B0FD9114A9B5CDBB2114A1A
:1050D00012789A4208D94FF0500383F31188BFF336
:1050E0006F8FBFF34F8FFEE74FF0E023D3F80C3DF7
:1050F00003F4E063084A1268934208D94FF0500362
:1051000083F31188BFF36F8FBFF34F8FFEE77047B4
:10511000F0E300E0C4540020C8540020F0B58BB088
:10512000002405940694079408940994294BD3F815
:10513000E02042F00402C3F8E020D3F8E02002F0BF
:1051400004020192019AD3F8E02042F08002C3F8F1
:10515000E020D3F8E02002F080020292029AD3F815
:10516000E02042F00202C3F8E020D3F8E02002F091
:1051700002020392039AD3F8E02042F01002C3F82F
:10518000E020D3F8E03003F010030493049B124FA7
:1051900022464FF480413846FDF7AAFE0F4D2246C5
:1051A00002212846FDF7A4FE4FF480430593012613
:1051B00006960794089405A93846FDF78FFD02234B
:1051C000059306960794089405A92846FDF786FDE1
:1051D0000BB0F0BD00440258000402580010025801
:1051E00008B50120FFF794FCFBE7000008B5026852
:1051F000034B9A4200D008BDFDF7D8FEFBE700BF85
:105200000000014072B6FEE700B59DB04C220021BF
:1052100009A8FBF77BF92022002101A8FBF776F90A
:105220000220FDF76BFE00230093214B9A6922F4C4
:1052300040429A619B6903F440430093009B1C4BDE
:105240009B6913F4005FFAD0012309934FF4803374
:105250000A9302231293139304221492822215922A
:105260001693179318930823199300231A931B93EB
:1052700009A8FCF79BFFB0B93F23019303230293D6
:1052800000230393082304934023059306934FF4CC
:10529000806207920893022101A8FDF777FB20B9ED
:1052A0001DB05DF804FBFFF7ADFFFFF7ABFF00BFDC
:1052B0000048025808B5FDF74BFEFFF7A5FFFFF7C2
:1052C0002DFFFFF799FB054A00210548FFF7C2FBB8
:1052D000044B1860FFF7A2FBFEE700BFA0530008D5
:1052E000E1510008CC540020DFF834D0FEF758F824
:1052F0000C480D490D4A002302E0D458C450043331
:10530000C4188C42F9D30A4A0A4C002301E0136006
:105310000432A242FBD3FBF73BF8FFF7CBFF704709
:10532000000002200000002054080020FC54000867
:1053300054080020D0540020FEE70000024B13B1B7
:105340000248FBF709B87047000000006503000839
:10535000F8B500BFF8BC08BC9E467047F8B500BF62
:08536000F8BC08BC9E46704732
:1053680008000020000000000102030401020304F9
:105378000607080949444C4500000000546D725165
:1053880000000000546D7220537663006465666106
:10539800756C745461736B0094530008000000002E
:1053A80000000000000000000000000000020000F3
:0C53B800180000000000000000000000D1
:1053C40008B10181B0B000840000000008B101817F
:1053D400B0B000840000000008B10181B0B00084C6
:1053E4000000000008B10181B0B00084000000009A
:0C53F40008B10181B0B00084000000008E
:1054000018B2FF7F01000000A8B2FF7FB0A90280A0
:105410003CB3FF7FB0B0A8808CB3FF7F01000000D9
:1054200098B3FF7FB0B0AA80CCB3FF7FAE71B280DB
:1054300090B4FF7F010000008CB4FF7FAB3F388049
:10544000ECB4FF7F01000000F4B4FF7FB0B0AA808D
:1054500030B5FF7F01000000DCB5FF7FAA0DB280F0
:1054600058B6FF7FB0AF0880F8B8FF7F010000009A
:10547000FCB8FF7FAD3F028078BBFF7F01000000DA
:1054800054BDFF7F0084048068BDFF7F01000000E1
:1054900064BDFF7FB0AD048008C0FF7FB0A803806B
:1054A0002CC0FF7F44FFFF7F30C0FF7F48FFFF7F9E
:1054B0003CC0FF7F0100000064FCFF7FB0AB0A80AE
:1054C00020FDFF7F00FFFF7F24FDFF7F04FFFF7FA4
:1054D00034FDFF7F0100000030FDFF7F00841C8051
:1054E000D4FDFF7FF8FEFF7F00FEFF7F010000007C
:0854F0003D53000839030008D8
:0454F8001103000894
:1054FC00080000200000000000000000F402002062
:10550C005C030020C4030020000000000000000029
:10551C00000000000000000000000000000000007F
:10552C00000000000000000000000000000000006F
:10553C00000000000000000000000000000000005F
:10554C00000000000000000000000000000000004F
:10555C00000000000000000000000000000000003F
:10556C00000000000000000000000000000000002F
:10557C00000000000000000000000000000000001F
:10558C00000000000000000000000000000000000F
:10559C0000000000000000000000000000000000FF
:1055AC0001000000000000000E33CDAB34126DE69C
:1055BC00ECDE05000B000000000000000000000005
:1055CC0000000000000000000000000000000000CF
:1055DC0000000000000000000000000000000000BF
:1055EC0000000000000000000000000000000000AF
:1055FC00000000000000000000000000000000009F
:10592C0000000000000000003004002030040020C3
:10593C0038040020380400204004002040040020DB
:10594C00480400204804002050040020500400208B
:10595C00580400205804002060040020600400203B
:10596C0068040020680400207004002070040020EB
:10597C00780400207804002080040020800400209B
:10598C00880400208804002090040020900400204B
:10599C009804002098040020A0040020A0040020FB
:1059AC00A8040020A8040020B0040020B0040020AB
:1059BC00B8040020B8040020C0040020C00400205B
:1059CC00C8040020C8040020D0040020D00400200B
:1059DC00D8040020D8040020E0040020E0040020BB
:1059EC00E8040020E8040020F0040020F00400206B
:1059FC00F8040020F8040020000500200005002019
:105A0C0008050020080500201005002010050020C6
:105A1C001805002018050020200500202005002076
:105A2C002805002028050020300500203005002026
:105A3C0038050020380500204005002040050020D6
:105A4C004805002048050020500500205005002086
:105A5C005805002058050020600500206005002036
:105A6C0068050020680500207005002070050020E6
:105A7C007805002078050020800500208005002096
:105A8C008805002088050020900500209005002046
:105A9C009805002098050020A0050020A0050020F6
:105AAC00A8050020A8050020B0050020B0050020A6
:105ABC00B8050020B8050020C0050020C005002056
:105ACC00C8050020C8050020D0050020D005002006
:105ADC00D8050020D8050020E0050020E0050020B6
:105AEC00E8050020E8050020F0050020F005002066
:105AFC00F8050020F8050020000600200006002014
:105B0C0008060020080600201006002010060020C1
:105B1C001806002018060020200600202006002071
:105B2C002806002028060020300600203006002021
:105B3C0038060020380600204006002040060020D1
:105B4C004806002048060020500600205006002081
:105B5C005806002058060020600600206006002031
:105B6C0068060020680600207006002070060020E1
:105B7C007806002078060020800600208006002091
:105B8C008806002088060020900600209006002041
:105B9C009806002098060020A0060020A0060020F1
:105BAC00A8060020A8060020B0060020B0060020A1
:105BBC00B8060020B8060020C0060020C006002051
:105BCC00C8060020C8060020D0060020D006002001
:105BDC00D8060020D8060020E0060020E0060020B1
:105BEC00E8060020E8060020F0060020F006002061
:105BFC00F8060020F806002000070020000700200F
:105C0C0008070020080700201007002010070020BC
:105C1C00180700201807002020070020200700206C
:105C2C00280700202807002030070020300700201C
:105C3C0038070020380700204007002040070020CC
:105C4C00480700204807002050070020500700207C
:105C5C00580700205807002060070020600700202C
:105C6C0068070020680700207007002070070020DC
:105C7C00780700207807002080070020800700208C
:105C8C00880700208807002090070020900700203C
:105C9C009807002098070020A0070020A0070020EC
:105CAC00A8070020A8070020B0070020B00700209C
:105CBC00B8070020B8070020C0070020C00700204C
:105CCC00C8070020C8070020D0070020D0070020FC
:105CDC00D8070020D8070020E0070020E0070020AC
:105CEC00E8070020E8070020F0070020F00700205C
:105CFC00F8070020F807002000080020000800200A
:105D0C0008080020080800201008002010080020B7
:105D1C001808002018080020200800202008002067
:105D2C002808002028080020FFFFFFFF00000200C9
:105D3C0001000000100000000090D0030090D00380
:045D4C00AAAAAAAAAB
:04000005080052E9B4
:00000001FF
